:100000000C9409010C94D2050C94F8050C94100D75
:100010000C945C0C0C9426010C9426010C94260183
:100020000C9426010C9426010C941A110C942601B0
:100030000C9426010C94E9160C9426010C942601CC
:100040000C9426010C9426010C9426010C940E1598
:100050000C94260154686520526F626F74206E659F
:1000600065647320746F20626520726573657474B3
:100070006564206E6F772E0A0A00596F75206E65D1
:10008000656420746F20636865636B204D6F746FC7
:100090007220617373656D626C7920286F722079AC
:1000A0006F757220736F667477617265292E0A0A04
:1000B000000A0A28732E207461736B5F6D6F746F72
:1000C00072436F6E74726F6C28292066756E63744C
:1000D000696F6E20696E205250364C696221290A80
:1000E000000A0A232323204D4F544F52204F5645D8
:1000F0005243555252454E54202323230A00596F30
:1001000075206E65656420746F20636865636B207D
:10011000456E636F6465722F4D6F746F72206173EB
:1001200073656D626C7920286F7220796F7572200B
:10013000736F667477617265292E0A0A00210A0AB4
:1001400028732E207461736B5F6D6F746F72436FD1
:100150006E74726F6C28292066756E6374696F6E99
:1001600020696E205250364C696221290A0052499A
:10017000474854004C4546540041666665637465C3
:1001800064206368616E6E656C3A000A2323232045
:10019000454E434F44455220284F52204D4F544F17
:1001A0005229204D414C46554E4354494F4E212033
:1001B0002323230A00232323232320414C4C204FB5
:1001C0005045524154494F4E532053544F5050457F
:1001D0004420544F2050524556454E5420414E59CC
:1001E0002044414D414745212023232323230A0056
:1001F0000A0A232323232320454D455247454E43D6
:10020000592053485554444F574E2023232323232A
:100210000A0011241FBECFE5D8E0DEBFCDBF11E03C
:10022000A0E6B0E0E2EEFDE302C005900D92A43737
:10023000B107D9F712E0A4E7B1E001C01D92A636DC
:10024000B107E1F70E9428010C94EF1E0C94000006
:10025000DF93CF9300D000D0CDB7DEB70E94581403
:1002600088EC90E09C838B831092F8011092F70148
:100270001092EA011092E90180E590E090939A01D2
:100280008093990180E590E090939501809394018B
:1002900080E590E09A8389838CED95E00E94DF13DE
:1002A0000E94DE108091990190919A01282F8091EF
:1002B000940190919501982F822F692F0E946B09CC
:1002C0008091990190919A01282F809194019091A9
:1002D0009501982F822F692F0E946B090E94C506F5
:1002E0000E942D05EDCF0F931F93DF93CF9300D086
:1002F00000D000D0CDB7DEB79A8389837C836B832F
:100300005E834D8329813A818091F7019091F801B4
:100310002817390749F489819A812B813C814D81C5
:100320005E81B9010E94DB0189819A812D813E8124
:10033000B9010E94D7029C0189819A81280F391F37
:100340008091F7019091F8012817390749F48981C4
:100350009A812B813C81B90142E050E00E94DB018F
:1003600089819A81880F991F8C0189819A812D81B9
:100370003E81B9010E94D7029801280F391F809150
:10038000F7019091F8012817390750F40E94270AC5
:1003900010929A0110929901109295011092940175
:1003A00026960FB6F894DEBF0FBECDBFCF91DF917A
:1003B0001F910F910895EF92FF920F931F93DF9378
:1003C000CF93CDB7DEB728970FB6F894DEBF0FBE38
:1003D000CDBF9A8389837C836B835E834D838D81BC
:1003E0009E8198878F838F8198858130910561F0F8
:1003F0008F8198858230910509F4C0C08F819885DE
:10040000009709F45EC0C6C08B819C8190939A01CD
:10041000809399018091990190919A01AA2797FD63
:10042000A095BA2FBC01CD010E947D1B7B018C01E0
:1004300089819A81AA2797FDA095BA2FBC01CD0189
:100440000E947D1BDC01CB01BC01CD0120E030E02E
:100450004EE452E40E947A19DC01CB019C01AD010B
:10046000C801B7010E94A11ADC01CB017C018D01FA
:1004700089819A81AA2797FDA095BA2FBC01CD0149
:100480000E947D1BDC01CB01BC01CD0120E030E0EE
:100490004EE452E40E944919DC01CB019C01AD01FC
:1004A000C801B7010E94A719DC01CB01BC01CD0135
:1004B0000E94DB1BDC01CB0190939501809394019A
:1004C00069C08B819C819093950180939401809168
:1004D000940190919501AA2797FDA095BA2FBC0190
:1004E000CD010E947D1B7B018C0189819A81AA2705
:1004F00097FDA095BA2FBC01CD010E947D1BDC01A8
:10050000CB01BC01CD0120E030E04EE452E40E947A
:100510007A19DC01CB019C01AD01C801B7010E9431
:10052000A11ADC01CB017C018D0189819A81AA2766
:1005300097FDA095BA2FBC01CD010E947D1BDC0167
:10054000CB01BC01CD0120E030E04EE452E40E943A
:100550004919DC01CB019C01AD01C801B7010E9422
:10056000A719DC01CB01BC01CD010E94DB1BDC0122
:10057000CB0190939A01809399010CC08B819C814F
:1005800090939A01809399018B819C81909395011E
:100590008093940128960FB6F894DEBF0FBECDBFAE
:1005A000CF91DF911F910F91FF90EF900895DF930E
:1005B000CF93CDB7DEB728970FB6F894DEBF0FBE46
:1005C000CDBF9C838B837E836D831A8219828D813C
:1005D0009E8198878F838F819885009709F443C007
:1005E0008F8198858130910509F079C08B819C813C
:1005F000AA2797FDA095BA2FBC01CD010E947D1BB3
:10060000DC01CB01BC01CD0120E030E04EE452E43E
:100610000E947A19DC01CB01BC01CD0127E836E14B
:1006200049EC50E40E94A719DC01CB01BC01CD01CB
:1006300020E030E040E450E40E94A719DC01CB0147
:10064000BC01CD0120E030E040E850E40E94A11A56
:10065000DC01CB01BC01CD010E94D117DC01CB0133
:100660009A8389833CC08B819C81AA2797FDA095A2
:10067000BA2FBC01CD010E947D1BDC01CB01BC0166
:10068000CD0120E030E04EE452E40E944919DC0143
:10069000CB01BC01CD0127E836E149EC50E40E94D2
:1006A000A719DC01CB01BC01CD0120E030E040E422
:1006B00050E40E94A719DC01CB01BC01CD0120E070
:1006C00030E040E850E40E94A11ADC01CB01BC01FB
:1006D000CD010E94D117DC01CB019A8389838981E6
:1006E0009A8128960FB6F894DEBF0FBECDBFCF918A
:1006F000DF910895DF93CF93CDB7DEB78091B0013E
:10070000843010F01092B001CF91DF910895DF9303
:10071000CF93CDB7DEB784E08093B001CF91DF9166
:100720000895DF93CF9300D0CDB7DEB7A7E3B0E055
:10073000E7E3F0E080818C778C93A8E3B0E0E8E316
:10074000F0E080818C778C9380919B018870882366
:1007500071F0A7E3B0E0E7E3F0E0808180688C937C
:10076000A8E3B0E0E8E3F0E0808180688C938091BA
:100770009B018071882371F0A7E3B0E0E7E3F0E02C
:10078000808182608C93A8E3B0E0E8E3F0E08081B0
:1007900082608C9380919B018072882371F0A7E323
:1007A000B0E0E7E3F0E0808181608C93A8E3B0E003
:1007B000E8E3F0E0808181608C93A4E3B0E0E4E3BF
:1007C000F0E080818F788C93A5E3B0E0E5E3F0E082
:1007D00080818F788C93A4E3B0E0E4E3F0E0808143
:1007E000282F80919B01882F90E082959295907F91
:1007F0009827807F98278077822B8C93A5E3B0E0A1
:10080000E5E3F0E08081282F80919B01882F90E024
:1008100082959295907F9827807F98278077822B6A
:100820008C938091B001882359F480919B018A8335
:100830008A81882311F081E08A838A81898303C0B9
:100840008091B001898389818093B0010F900F90CE
:10085000CF91DF910895DF93CF930F92CDB7DEB79D
:100860008983898180939B010E9491030F90CF918E
:10087000DF910895DF93CF930F92CDB7DEB7A8E352
:10088000B0E0E8E3F0E080818E7F8C93A7E3B0E0F6
:10089000E7E3F0E080818E7F8C930000E6E3F0E0F8
:1008A00080818170898380919B018072882371F09F
:1008B000A7E3B0E0E7E3F0E0808181608C93A8E3F8
:1008C000B0E0E8E3F0E0808181608C9389810F9053
:1008D000CF91DF910895DF93CF930F92CDB7DEB71D
:1008E000A5E3B0E0E5E3F0E080818F7B8C93A4E3A7
:1008F000B0E0E4E3F0E080818F7B8C930000E3E3E1
:10090000F0E080818074898380919B0184708823CA
:1009100071F0A4E3B0E0E4E3F0E0808180648C93C4
:10092000A5E3B0E0E5E3F0E0808180648C93898109
:100930000F90CF91DF910895DF93CF93CDB7DEB7BE
:10094000CF91DF910895DF93CF9300D0CDB7DEB77D
:100950009A83898389819A8190936300809362004E
:100960000F900F90CF91DF910895DF93CF9300D038
:10097000CDB7DEB78091E8018333E8F00E943A04F6
:100980008A830E946B04898390919C018A819817C5
:1009900029F49091F9018981981759F08A818093FF
:1009A0009C0189818093F901E0916200F0916300DC
:1009B00009951092E8010F900F90CF91DF91089563
:1009C000DF93CF9300D00F92CDB7DEB78983E6E2F5
:1009D000F0E08081882F90E080749070009719F08B
:1009E0001B821A821FC0E7E2F0E089818064808365
:1009F000E6E2F0E086ED8083E6E2F0E08081882F99
:100A000090E0807490700097B9F7A6E2B0E0E6E25B
:100A1000F0E0808180618C93E4E2F0E0808191815C
:100A20009B838A838A819B810F900F900F90CF9137
:100A3000DF910895DF93CF930F92CDB7DEB789830F
:100A4000E7E2F0E0898180648083E6E2F0E086ED11
:100A500080830F90CF91DF910895DF93CF9300D0E3
:100A6000CDB7DEB7E6E2F0E08081882F90E08074B9
:100A70009070009709F091C080917B01282F30E0A1
:100A80003A83298389819A818330910509F44AC088
:100A900029813A81243031057CF489819A81813021
:100AA000910541F129813A81223031057CF5898116
:100AB0009A81009799F065C029813A8125303105E6
:100AC00009F448C089819A8185309105BCF129815A
:100AD0003A812630310509F449C053C0E4E2F0E020
:100AE000808191819093FD018093FC0186E00E94BA
:100AF0001A0547C0E4E2F0E0808191819093020200
:100B00008093010285E00E941A053BC0E4E2F0E018
:100B1000808191819093F3018093F20183E00E94A0
:100B20001A052FC0E4E2F0E0808191819093BC012E
:100B30008093BB0182E00E941A0523C0E4E2F0E04A
:100B4000808191819093E2018093E10180E00E9495
:100B50001A0517C0E4E2F0E0808191819093F001E2
:100B60008093EF0181E00E941A050BC0E4E2F0E0FF
:100B7000808191819093BA018093B90187E00E94AE
:100B80001A0580917B01863019F410927B0105C013
:100B900080917B018F5F80937B010F900F90CF91AD
:100BA000DF9108951F920F920FB60F9211248F9329
:100BB0009F93DF93CF93CDB7DEB78091F7019091EC
:100BC000F80101969093F8018093F7018091ED016F
:100BD0009091EE0101969093EE018093ED01CF91FB
:100BE000DF919F918F910F900FBE0F901F901895DE
:100BF0001F920F920FB60F9211248F939F93DF9342
:100C0000CF93CDB7DEB78091E9019091EA010196CB
:100C10009093EA018093E9018091C3019091C4010E
:100C200001969093C4018093C301CF91DF919F916E
:100C30008F910F900FBE0F901F901895DF93CF9359
:100C4000CDB7DEB7CF91DF910895DF93CF9300D07A
:100C5000CDB7DEB79A83898389819A8190936500A5
:100C6000809364000F900F90CF91DF910895DF93F0
:100C7000CF9300D0CDB7DEB78A83F894A2E3B0E07B
:100C8000E2E3F0E080818F778C930E944410109211
:100C9000B2011092B1011092C2011092C1011092E2
:100CA000AC011092AB011092E7011092E601109294
:100CB00000021092DE01EAE4F0E01082E8E4F0E0E5
:100CC0001082EFE4F0E010820E94F31080EF91E0D8
:100CD0000E94261685EB91E00E9426168A818130BB
:100CE00019F08A818230E9F48BE891E00E9426169F
:100CF00089E791E00E9426168A81813029F484E7F1
:100D000091E00E94261604C08EE691E00E9426160D
:100D10008DE391E00E9426168EEF90E00E94261649
:100D20000FC08A81833061F481EE90E00E94261624
:100D300081EB90E00E9426168AE790E00E9426163A
:100D400084E590E00E94261686E30E942B048AE048
:100D5000898307C080E090E80E9400148981815057
:100D6000898389818823B1F780E00E942B048AE07F
:100D7000898307C08FEF9FEF0E9400148981815003
:100D8000898389818823B1F7DFCFDF93CF93CDB7F4
:100D9000DEB728970FB6F894DEBF0FBECDBF8091A7
:100DA000DD01823308F47EC01092DD018091DA010A
:100DB000882309F043C0809101029091020223E050
:100DC0008330920740F48091F2019091F30143E067
:100DD00083309407F0F08091DC018F5F8093DC0119
:100DE0008AE08093DA011092B2011092B101109260
:100DF000C2011092C1011092AC011092AB0110928D
:100E0000E7011092E6018091980184608093980137
:100E100059C2809198018B7F809398018091A7019E
:100E2000853628F01092DC011092A70107C080914E
:100E3000DC01833018F083E00E94370680910102C4
:100E4000909102028639910598F48091B3019091B6
:100E5000B401009769F48091A1019091A2010097DB
:100E600039F080910002873918F081E00E9437063E
:100E70008091F2019091F3018639910598F4809167
:100E8000F5019091F601009769F480919F0190918E
:100E9000A001009739F08091DE01873918F082E0D7
:100EA0000E9437068091AF01882309F4FCC180912C
:100EB000DA01882309F0F0C18091DC01882331F048
:100EC0008091A7018F5F8093A70102C01092A701B4
:100ED000809198018270882309F43FC02091F70126
:100EE0003091F80180919D0190919E01281739075A
:100EF00090F01092A2011092A1011092AC011092F8
:100F0000AB011092B2011092B101809198018D7FD6
:100F10008093980122C02091F7013091F8018091CF
:100F2000B5019091B60128173907B8F08091A10159
:100F30009091A201969587959093A2018093A1012B
:100F40008091A1019091A2018631910530F486E152
:100F500090E09093A2018093A1018091980181700B
:100F6000882309F43FC02091E9013091EA01809182
:100F7000BF019091C0012817390790F01092A0018D
:100F800010929F011092E7011092E6011092C201A7
:100F90001092C101809198018E7F8093980122C0A8
:100FA0002091E9013091EA018091EB019091EC01EF
:100FB00028173907B8F080919F019091A00196956C
:100FC00087959093A00180939F0180919F019091BC
:100FD000A0018631910530F486E190E09093A00164
:100FE00080939F019091760180917801981739F450
:100FF0009091770180917901981709F464C08091EC
:10100000A1019091A201009731F480919F019091EC
:10101000A001009741F18091A1019091A2019093CC
:10102000A4018093A30180919F019091A0019093CE
:10103000B8018093B7011092A2011092A101109201
:10104000A00110929F011092C2011092C101109252
:10105000B2011092B1011092AC011092AB0110924A
:10106000E7011092E601EFE4F0E08081882359F572
:101070008091760190917701692F0E94E80B809111
:10108000A3019091A4019093A2018093A10180916A
:10109000B7019091B8019093A00180939F01809136
:1010A000A1019091A201969587959093AC018093B0
:1010B000AB0180919F019091A001969587959093A7
:1010C000E7018093E6012091A1013091A201809176
:1010D000B3019091B401A901481B590BCA019C832B
:1010E0008B832091AB013091AC018B819C81820F6D
:1010F000931F9093AC018093AB018091AB019091D1
:10110000AC0151E0853A950734F084EA91E0909380
:10111000AC018093AB018091AB019091AC012EEFBB
:101120008C35920734F48CE59EEF9093AC0180935C
:10113000AB018091B3019091B401009751F480917B
:10114000A1019091A201009721F41092AC0110929C
:10115000AB018091AB019091AC019E838D834D8159
:101160005E8155232CF48D819E8101969E838D8313
:101170008D819E81959587959093B2018093B10161
:101180008091B1019091B201833D910534F082EDDF
:1011900090E09093B2018093B1018091B101909160
:1011A000B201992324F41092B2011092B10120915E
:1011B0009F013091A0018091F5019091F601A90164
:1011C000481B590BCA019A8389832091E60130910B
:1011D000E70189819A81820F931F9093E7018093A1
:1011E000E6018091E6019091E70151E0853A95078B
:1011F00034F084EA91E09093E7018093E6018091D6
:10120000E6019091E7012EEF8C35920734F48CE5DE
:101210009EEF9093E7018093E6018091F501909114
:10122000F601009751F480919F019091A0010097E1
:1012300021F41092E7011092E6018091E60190916D
:10124000E70198878F834F81588555232CF48F8130
:101250009885019698878F838F8198859595879536
:101260009093C2018093C1018091C1019091C2010C
:10127000833D910534F082ED90E09093C20180931C
:10128000C1018091C1019091C201992354F410923F
:10129000C2011092C10105C08091DA018150809392
:1012A000DA011092AF01909198018091FB0198179B
:1012B00049F0809198018093FB01E0916400F091E6
:1012C0006500099528960FB6F894DEBF0FBECDBF16
:1012D000CF91DF910895DF93CF9300D0CDB7DEB7E4
:1012E00089836A838981893C10F088EC89838A81AB
:1012F000893C10F088EC8A838981882F90E0909354
:10130000A2018093A1018A81882F90E09093A0018F
:1013100080939F010F900F90CF91DF910895DF93FD
:10132000CF9300D000D00F92CDB7DEB789838981EB
:1013300080937A018981813019F08981823029F482
:1013400081E090E09D838C8302C01D821C828C8191
:10135000809376018981813019F08981833029F465
:1013600081E090E09B838A8302C01B821A828A817B
:10137000809377010F900F900F900F900F90CF9167
:10138000DF910895DF93CF93CDB7DEB72A970FB6DD
:10139000F894DEBF0FBECDBF9C838B837E836D83AD
:1013A0001A868B819C81992314F481E08A878A852F
:1013B0008093760119868D819E81992314F481E0B2
:1013C00089878985809377018B819C8118161906FE
:1013D0001CF48B81888703C08B81819588878885E1
:1013E0008A838B819C81181619061CF48D818F834A
:1013F00003C08D8181958F838F8189838A816981E3
:101400000E946B092A960FB6F894DEBF0FBECDBFBF
:10141000CF91DF910895DF93CF9300D0CDB7DEB7A2
:10142000809198018170882351F480919801827095
:10143000882329F481E090E09A83898302C01A828C
:10144000198289810F900F90CF91DF910895DF93DA
:10145000CF93CDB7DEB71092A2011092A1011092E6
:10146000A00110929F011092AC011092AB0110925A
:10147000E7011092E601809198018E7F8093980198
:10148000809198018D7F809398018091980180933D
:10149000FB01E0916400F09165000995CF91DF9127
:1014A0000895DF93CF9300D000D00F92CDB7DEB771
:1014B00089836A835C834B832D838091980181604B
:1014C0008093980180919801826080939801109296
:1014D000EC011092EB011092B6011092B5018981D6
:1014E0008731D0F08981282F30E086EF9FEF821B73
:1014F000930B880F991F9C018B819C81820F931FF6
:101500009093EC018093EB018091EB019091EC01C1
:101510009093B6018093B5018B819C810297909343
:10152000C0018093BF018091BF019091C001909351
:101530009E0180939D018B819C818832910500F5ED
:1015400088E290E09C838B8384E190E09093C001DB
:101550008093BF018091BF019091C00190939E0143
:1015600080939D018AE090E09093EC018093EB01E1
:101570008091EB019091EC019093B6018093B501BD
:101580008B819C8121E080399207E0F48981893246
:10159000C8F088E289838B819C819C0136952795D0
:1015A000369527958B819C81821B930B9093EC0140
:1015B0008093EB018091EB019091EC019093B60147
:1015C0008093B5011092F8011092F7011092EA0190
:1015D0001092E901898169810E946B098A810E94C8
:1015E0008F098B819C819093C8018093C7018B8167
:1015F0009C819093A9018093A80180919801809388
:10160000FB01809198018093FB01E0916400F091CF
:10161000650009958D81882339F002C00E94491424
:101620000E940B0A8823D1F30F900F900F900F9018
:101630000F90CF91DF910895DF93CF93CDB7DEB7B1
:1016400027970FB6F894DEBF0FBECDBF8B836C8398
:101650005E834D832F8380919801816080939801F0
:10166000809198018260809398018D819E81CC0148
:10167000A0E0B0E020EB32E040E050E0BC01CD0162
:101680000E94241EDC01CB0124E630E040E050E063
:10169000BC01CD010E94571EDA01C9019A838983DA
:1016A00089819A81845690409093EC018093EB015C
:1016B00089819A81845690409093B6018093B501B8
:1016C00089819A819093C0018093BF0189819A8119
:1016D00090939E0180939D0189819A818832910522
:1016E000E0F488E290E09A83898384E190E090932B
:1016F000C0018093BF0184E190E090939E018093AC
:101700009D018AE090E09093EC018093EB018AE0E8
:1017100090E09093B6018093B5018B816B810E941C
:101720006B098C810E948F091092F8011092F701C9
:101730001092EA011092E90189819A819093C8017F
:101740008093C70189819A819093A9018093A80110
:10175000809198018093FB01E0916400F091650015
:1017600009958F81882339F002C00E9449140E9494
:101770000B0A8823D1F327960FB6F894DEBF0FBE6D
:10178000CDBFCF91DF910895DF93CF9300D0CDB738
:10179000DEB789836A838981833D10F082ED898376
:1017A0008A81833D10F082ED8A838A81882F90E0C0
:1017B0009093C2018093C1018981882F90E090931A
:1017C000B2018093B1010F900F90CF91DF910895F6
:1017D000DF93CF9300D0CDB7DEB789836A83898149
:1017E000809378018A818093790189818093760141
:1017F0008A81809377018981882341F0A5E3B0E055
:10180000E5E3F0E0808184608C9307C0A5E3B0E05D
:10181000E5E3F0E080818B7F8C938A81882341F01F
:10182000A5E3B0E0E5E3F0E0808188608C9307C039
:10183000A5E3B0E0E5E3F0E08081877F8C930F9033
:101840000F90CF91DF910895DF93CF9300D0CDB764
:10185000DEB789836A8307C0A9E5B0E0E9E5F0E077
:10186000808180688C938091A6018823A9F7898163
:10187000882F90E08F7390709C01002436952795F7
:101880000794369527950794322F202D8A81882F2B
:1018900090E08F739070822B932B90639093C6018E
:1018A0008093C5018091A50180648093A5010F906C
:1018B0000F90CF91DF9108951F920F920FB60F9264
:1018C00011248F939F93AF93BF93EF93FF93DF9375
:1018D000CF93CDB7DEB780916600823008F065C047
:1018E00080917C018823D9F180917C018C33C8F4EC
:1018F0008091DF019091E00180709074009749F031
:10190000A2E3B0E0E2E3F0E0908180E889278C93E5
:1019100020C0A2E3B0E0E2E3F0E080818F778C9317
:1019200018C08091DF019091E00180709074009761
:1019300041F0A2E3B0E0E2E3F0E080818F778C93A6
:1019400008C0A2E3B0E0E2E3F0E0908180E88927FC
:101950008C9380917C01815080937C0154C0809154
:10196000A6018823D1F0A2E3B0E0E2E3F0E08081B9
:101970008F778C938091DF019091E001880F991F00
:101980009093E0018093DF0188E780937C01809150
:10199000A60181508093A60136C0A2E3B0E0E2E345
:1019A000F0E080818F778C932EC08091AA018823EC
:1019B000E1F08091A5018170882349F4A8E3B0E0AB
:1019C000E8E3F0E0908180E489278C9308C0A5E3E8
:1019D000B0E0E5E3F0E0908180E889278C93809186
:1019E000AA0181508093AA010EC0A8E3B0E0E8E309
:1019F000F0E0808180648C93A5E3B0E0E5E3F0E063
:101A0000808180688C93CF91DF91FF91EF91BF919E
:101A1000AF919F918F910F900FBE0F901F901895CF
:101A20001F920F920FB60F9211248F939F93EF93F3
:101A3000FF93DF93CF930F92CDB7DEB7809166000F
:101A4000833021F0809166008630C1F48091A50139
:101A50008071882399F48091A5018072882371F0A8
:101A6000E6E3F0E08081882F90E08470907000972A
:101A700029F48091FA018F5F8093FA01E6E3F0E0A8
:101A800080818091A5018D7F8093A5010F90CF91DA
:101A9000DF91FF91EF919F918F910F900FBE0F906B
:101AA0001F901895DF93CF9300D0CDB7DEB79A8300
:101AB00089830F900F90CF91DF910895DF93CF939B
:101AC00000D0CDB7DEB79A83898389819A819093BC
:101AD0006800809367000F900F90CF91DF91089579
:101AE000DF93CF93CDB7DEB7CF91DF910895DF932A
:101AF000CF9300D0CDB7DEB79A83898389819A814D
:101B000090936A00809369000F900F90CF91DF91BE
:101B10000895DF93CF93CDB7DEB72E970FB6F89425
:101B2000DEBF0FBECDBF8091BD019091BE0182305E
:101B3000910508F44DC28091A5018071882309F0B8
:101B400024C280916600282F30E03E872D878D8546
:101B50009E858230910509F4B9C02D853E852330DC
:101B6000310554F48D859E850097C9F02D853E85FD
:101B70002130310589F10FC28D859E858530910513
:101B800009F454C12D853E852630310509F483C101
:101B90008D859E858330910509F4CDC0FCC1A9E5F2
:101BA000B0E0E9E5F0E080818F778C93A2E3B0E0CC
:101BB000E2E3F0E080818F778C93A8E3B0E0E8E384
:101BC000F0E0808180648C93A5E3B0E0E5E3F0E091
:101BD000808180688C93DFC18091A601882309F001
:101BE0004DC08091A50180748823C1F08091C5010A
:101BF0009091C6019093E0018093DF018EE0809385
:101C0000A6018091A5018F7B8093A501A9E5B0E095
:101C1000E9E5F0E0808180688C931CC0A9E5B0E024
:101C2000E9E5F0E080818F778C93A2E3B0E0E2E316
:101C3000F0E080818F778C93A8E3B0E0E8E3F0E0F8
:101C4000808180648C93A5E3B0E0E5E3F0E08081DF
:101C500080688C93909181019C871B862C85243110
:101C600010F031E03B878C858F5F809381018B85FD
:101C7000882359F082E08093660007C0A9E5B0E0B0
:101C8000E9E5F0E0808180688C938091A5018870FF
:101C9000882309F480C1E0916700F0916800809189
:101CA000FE019091FF0109958091FE019091FF0145
:101CB0009093AE018093AD011092FF011092FE014E
:101CC0008091A501877F8093A50165C1A9E5B0E05A
:101CD000E9E5F0E080818F778C93A2E3B0E0E2E366
:101CE000F0E080818F778C93A8E3B0E0E8E3F0E048
:101CF000808180648C93A5E3B0E0E5E3F0E080812F
:101D000080688C931092AA011092FA0110928001BF
:101D100010927F018091A5018E7F8093A501809113
:101D2000A50180628093A50183E08093810183E017
:101D30008093660030C18091AA018823E1F49091DC
:101D400081019A8719862A85233010F031E039877E
:101D50008A858F5F809381018985882361F0A9E559
:101D6000B0E0E9E5F0E0808180688C9388E28093C0
:101D7000AA01109281018091DB01882369F0809192
:101D8000FA01823048F01092FA0181E08093DB0181
:101D900085E080936600FFC08091FA01863048F0AC
:101DA0001092FA0181E08093DB0185E08093660068
:101DB000F2C020917F013091800138872F831E82ED
:101DC0008F8198858E30910510F091E09E838F81F0
:101DD000988501969093800180937F012E81222324
:101DE00009F4D9C01092DB0185E080936600A9E573
:101DF000B0E0E9E5F0E080818F778C93A2E3B0E07A
:101E0000E2E3F0E080818F778C93A8E3B0E0E8E331
:101E1000F0E0808180648C93A5E3B0E0E5E3F0E03E
:101E2000808180688C931092AA01B5C0A9E5B0E0CA
:101E3000E9E5F0E080818F778C93A2E3B0E0E2E304
:101E4000F0E080818F778C93A8E3B0E0E8E3F0E0E6
:101E5000808180648C93A5E3B0E0E5E3F0E08081CD
:101E600080688C931092AA011092FA01109280015E
:101E700010927F018091A50181608093A5018091DE
:101E8000A50180628093A50183E08093810186E0B3
:101E90008093660080C08091AA018823E1F430918C
:101EA00081013D831C828D81833010F091E09C8301
:101EB0008D818F5F809381012C81222361F0A9E5C0
:101EC000B0E0E9E5F0E0808180688C9388E280935F
:101ED000AA01109281018091E401882369F0809128
:101EE000FA01823048F01092FA0181E08093E40117
:101EF00081E0809366004FC08091FA01863048F0FF
:101F00001092FA0181E08093E40181E08093660001
:101F100042C080917F01909180019B838A831982C6
:101F20002A813B812E30310510F031E039838A81DE
:101F30009B8101969093800180937F018981882302
:101F400051F11092E40181E080936600A9E5B0E0D0
:101F5000E9E5F0E080818F778C93A2E3B0E0E2E3E3
:101F6000F0E080818F778C93A8E3B0E0E8E3F0E0C5
:101F7000808180648C93A5E3B0E0E5E3F0E08081AC
:101F800080688C931092AA0106C010928001109272
:101F90007F011092810190917E018091DB01981761
:101FA00031F490917D018091E401981769F080915E
:101FB000DB0180937E018091E40180937D01E091BB
:101FC0006900F0916A0009951092BE011092BD015E
:101FD0002E960FB6F894DEBF0FBECDBFCF91DF9126
:101FE0000895DF93CF93CDB7DEB710926600A9E5D1
:101FF000B0E0E9E5F0E080818F778C93A2E3B0E078
:10200000E2E3F0E080818F778C93A8E3B0E0E8E32F
:10201000F0E0808180648C93A5E3B0E0E5E3F0E03C
:10202000808180688C931092E4011092DB01CF9143
:10203000DF910895DF93CF93CDB7DEB7A9E5B0E088
:10204000E9E5F0E080818F778C93A2E3B0E0E2E3F2
:10205000F0E080818F778C93A8E3B0E0E8E3F0E0D4
:10206000808180648C93A5E3B0E0E5E3F0E08081BB
:1020700080688C931092E4011092DB0181E08093E0
:102080006600CF91DF910895DF93CF93CDB7DEB790
:10209000A1E3B0E0E1E3F0E080818F7B8C93A2E3E9
:1020A000B0E0E2E3F0E080818F7B8C93A7E3B0E0C7
:1020B000E7E3F0E08081877F8C93A8E3B0E0E8E37A
:1020C000F0E08081877F8C93A8E3B0E0E8E3F0E064
:1020D00080818F7B8C93A5E3B0E0E5E3F0E0808125
:1020E0008F778C93CF91DF910895DF93CF93CDB706
:1020F000DEB7A1E3B0E0E1E3F0E0808180648C939F
:10210000A2E3B0E0E2E3F0E0808180648C93A7E397
:10211000B0E0E7E3F0E08081877F8C93A8E3B0E054
:10212000E8E3F0E08081877F8C93CF91DF91089581
:10213000DF93CF93CDB7DEB7A1E3B0E0E1E3F0E00A
:1021400080818F7B8C93A2E3B0E0E2E3F0E08081BA
:102150008F7B8C93A7E3B0E0E7E3F0E080818860B9
:102160008C93A8E3B0E0E8E3F0E0808188608C9392
:10217000CF91DF910895DF93CF93CDB7DEB7A1E381
:10218000B0E0E1E3F0E0808180648C93A2E3B0E012
:10219000E2E3F0E0808180648C93A7E3B0E0E7E3C2
:1021A000F0E0808188608C93A8E3B0E0E8E3F0E0A1
:1021B000808188608C93CF91DF910895DF93CF93D6
:1021C000CDB7DEB7A8E3B0E0E8E3F0E0808180615E
:1021D0008C938091B001843018F483E08093B00137
:1021E000CF91DF910895DF93CF9300D0CDB7DEB7C5
:1021F000A8E3B0E0E8E3F0E080818F7E8C938091EB
:10220000B001843090F48091B001882321F4809152
:102210009B01882329F081E090E09A83898302C0A2
:102220001A82198289818093B0010F900F90CF910B
:10223000DF9108951F920F920FB60F9211242F93E2
:102240003F935F936F937F938F939F93AF93BF93CE
:10225000EF93FF93DF93CF93CDB7DEB72B97DEBF1E
:10226000CDBF80919601909197010196909397012F
:10227000809396018091F1018F5F8093F10120910D
:10228000F4012B871A868B85893010F091E09A87AC
:102290008B858F5F8093F4012A85222309F4ECC19A
:1022A0008091C901882F90E081709070882349F057
:1022B0008091CA019091CB0101969093CB018093BC
:1022C000CA018091C901882F90E0827090700097B8
:1022D00049F08091CC019091CD0101969093CD0170
:1022E0008093CC018091C901882F90E08470907018
:1022F000009749F08091CE019091CF010196909383
:10230000CF018093CE018091C901882F90E0887021
:102310009070009749F08091D0019091D101019681
:102320009093D1018093D0018091C901882F90E0D2
:1023300080719070009749F08091D2019091D30103
:1023400001969093D3018093D2018091C901882F87
:1023500090E080729070009749F08091D401909144
:10236000D50101969093D5018093D4018091C90144
:10237000882F90E080749070009749F08091D6018A
:102380009091D70101969093D7018093D6018091C7
:10239000C90188234CF48091D8019091D90101960C
:1023A0009093D9018093D8018091E501898718869F
:1023B0009985993C10F021E0288789858F5F80936B
:1023C000E50188858823E9F08091C3019091C401DB
:1023D0009093F6018093F5018091ED019091EE01CB
:1023E0009093B4018093B3011092C4011092C30181
:1023F0001092EE011092ED0181E08093AF011092F6
:10240000E5018091B001833008F0A3C08091B00154
:10241000823009F06BC080919B01882309F04BC08A
:1024200080918601909187019F838E8328EC30E014
:102430008E819F81B9010E94431E1D82009711F475
:1024400091E09D838E819F81019690938701809377
:1024500086012D81222309F47CC080918601909110
:1024600087012FE0813A9207A8F0A7E3B0E0E7E305
:10247000F0E080818D7F8C93A8E3B0E0E8E3F0E0AA
:1024800080818D7F8C931092B00110928701109201
:1024900086015FC0A7E3B0E0E7E3F0E0908182E06F
:1024A00089278C93A8E3B0E0E8E3F0E0908182E034
:1024B00089278C934EC080919B018071882371F491
:1024C000A7E3B0E0E7E3F0E080818D7F8C93A8E3A1
:1024D000B0E0E8E3F0E080818D7F8C93109287017B
:1024E0001092860181E08093B00133C08091860113
:1024F000909187012EE2813E920710F18091B00108
:102500008130B1F41092B00180919B0180718823D9
:1025100091F4A7E3B0E0E7E3F0E080818D7F8C9356
:10252000A8E3B0E0E8E3F0E080818D7F8C9303C006
:1025300082E08093B001109287011092860109C059
:1025400080918601909187010196909387018093F5
:1025500086018091BD019091BE018330910548F4C0
:102560008091BD019091BE0101969093BE01809330
:10257000BD018091DD01873328F48091DD018F5FFB
:102580008093DD018091E801843328F48091E80193
:102590008F5F8093E8018091E3018C831B829C8193
:1025A000933010F021E02B838C818F5F8093E301C7
:1025B0008B81882309F45EC08091DE01282F30E0F2
:1025C0008091C1019091C20128173907D9F08091FB
:1025D000DE01282F30E08091C1019091C2012817BF
:1025E000390734F48091DE018F5F8093DE0105C0EE
:1025F0008091DE0181508093DE01EAE4F0E0809179
:10260000DE01808380910002282F30E08091B101AB
:102610009091B20128173907D9F080910002282F34
:1026200030E08091B1019091B2012817390734F45C
:10263000809100028F5F8093000205C080910002AC
:10264000815080930002E8E4F0E0809100028083F2
:1026500080910002882321F48091DE01882329F0F3
:10266000EFE4F0E082EA808303C0EFE4F0E0108260
:102670001092E3011092F4018091A50188708823E3
:1026800009F077C080918201909183019A838983B8
:10269000809184018F5F80938401809184018631D1
:1026A000F0F089819A8180709074009789F4898113
:1026B0009A8180709072009759F089819A819093E5
:1026C000FF018093FE018091A50188608093A501A0
:1026D0008091A5018F7E8093A5011A821982E6E37D
:1026E000F0E09081809185018927882F90E08470A7
:1026F00090700097C1F1809185018095809385014C
:1027000080918401873038F48091A5018F7E809379
:10271000A5011A82198289819A81009721F08091FE
:1027200084018F3000F18091A50180618093A50123
:1027300089819A8180709074009731F489819A819F
:10274000880F991F9A83898380918501882F90E053
:1027500084709070009729F489819A8181609A83AE
:1027600089831092840189819A8190938301809357
:1027700082012B96DEBFCDBFCF91DF91FF91EF910C
:10278000BF91AF919F918F917F916F915F913F9199
:102790002F910F900FBE0F901F901895DF93CF933E
:1027A0000F92CDB7DEB789831092F1019091F101BC
:1027B00089819817D8F30F90CF91DF910895DF9317
:1027C000CF9300D00F92CDB7DEB79A83898303C031
:1027D0008AE00E94CE131B8289819A81009711F0B2
:1027E00081E08B8389819A8101979A8389838B8188
:1027F000882371F70F900F900F90CF91DF9108957C
:10280000DF93CF9300D00F92CDB7DEB79A83898341
:1028100001C000001B8289819A81009711F081E03C
:102820008B8389819A8101979A8389838B818823FD
:1028300081F70F900F900F90CF91DF910895DF9364
:10284000CF93CDB7DEB7AAE3B0E0EAE3F0E0808152
:1028500080618C93ABE3B0E0EBE3F0E080818061DA
:102860008C93CF91DF910895DF93CF93CDB7DEB7EF
:10287000ABE3B0E0EBE3F0E080818F7E8C93AAE3E2
:10288000B0E0EAE3F0E080818F7E8C93CF91DF911E
:102890000895DF93CF93CDB7DEB70E942D050E9438
:1028A000890D0E94B5040E94C506CF91DF9108955D
:1028B000DF93CF930F92CDB7DEB7EBE3F0E010825A
:1028C000E8E3F0E01082E5E3F0E01082E2E3F0E01C
:1028D00081E08083EAE3F0E01082E7E3F0E088E55E
:1028E0008083E4E3F0E08CE88083E1E3F0E082EFD2
:1028F0008083F894A8E3B0E0E8E3F0E080818F7D86
:102900008C93A7E3B0E0E7E3F0E0808180628C93F2
:102910008C91A2E3B0E0E2E3F0E080818F778C93CA
:102920000E944410E0E4F0E01082E9E2F0E08CE084
:102930008083EBE2F0E01082E0E4F0E086E8808360
:10294000EAE2F0E088E98083E7E2F0E01082E6E284
:10295000F0E086E18083E0E5F0E01082E5E5F0E07C
:1029600085E08083EBE5F0E080EE8083E4E5F0E055
:102970001082E3E5F0E08AE08083ECE5F0E083E6B6
:102980008083EFE4F0E082EA8083EEE4F0E081E12E
:102990008083E6E4F0E082ED90E091838083EAE4D6
:1029A000F0E01082E8E4F0E0108280E060E00E9455
:1029B000E80BE5E4F0E089E08083E3E4F0E08EE614
:1029C0008083E9E5F0E082E080838091A501816069
:1029D0008093A50181E08093660078940F90CF9159
:1029E000DF910895DF93CF930F92CDB7DEB7898340
:1029F000F894E2E2F0E089818083E3E2F0E08FEF97
:102A00008083E6E5F0E084E080837894E6E5F0E01A
:102A100085EC80830F90CF91DF9108951F920F92E4
:102A20000FB60F9211242F933F938F939F93AF93E1
:102A3000BF93EF93FF93DF93CF9300D0CDB7DEB773
:102A4000E1E2F0E08081282F30E03A832983898118
:102A50009A818039910509F49CC029813A812139F4
:102A600031059CF489819A818037910509F489C0E8
:102A700029813A812038310509F45AC089819A8127
:102A80008036910509F449C098C029813A81283AD5
:102A90003105B9F089819A81893A91053CF42981FF
:102AA0003A81203A310509F47EC087C089819A8134
:102AB000883B910561F029813A81203C3105F9F08C
:102AC0007CC084E080938C0181E080938A018091B6
:102AD0008C01843079F4A3E2B0E020918D01822F43
:102AE00090E0FC01EC5EFD4F80818C93822F8F5F24
:102AF00080938D01E6E5F0E085EC808362C0109262
:102B00008C0110928D0110928A0181E080938801DE
:102B1000E6E5F0E085EC808354C081E080938B0192
:102B200082E080938C01E6E5F0E085EC808349C08B
:102B300080918C01823069F4E3E2F0E0808180933F
:102B40008D0180918D018093890183E080938C01B8
:102B500013C080918C01833079F430918D01832FE3
:102B600090E0E3E2F0E02081FC01EC5FFD4F208388
:102B7000832F8F5F80938D01E6E5F0E085EC808305
:102B800020C081E080938C01E6E5F0E085EC808355
:102B900018C0E3E2F0E0808180930302E6E5F0E014
:102BA00085EC80830EC085E080938C01E6E5F0E043
:102BB00085EC808310928B0104C0E6E5F0E084E8A8
:102BC00080830F900F90CF91DF91FF91EF91BF9194
:102BD000AF919F918F913F912F910F900FBE0F90CA
:102BE0001F901895DF93CF930F92CDB7DEB78983EF
:102BF000EBE2F0E08081882F90E080729070009787
:102C0000B9F3ECE2F0E0898180830F90CF91DF91FE
:102C10000895DF93CF9300D0CDB7DEB79A83898331
:102C20000BC0E981FA81208189819A8101969A837A
:102C30008983822F0E94F215E981FA81808188239D
:102C400081F70F900F90CF91DF910895DF93CF938D
:102C500000D000D000D0CDB7DEB79E838D8303C0F7
:102C60008C810E94F2158D819E819B838A838D8148
:102C70009E8101969E838D83EA81FB818491898365
:102C800089818C838C81882359F726960FB6F89416
:102C9000DEBF0FBECDBFCF91DF910895DF93CF93FD
:102CA00000D000D0CDB7DEB79A8389836B834C8385
:102CB0008C81282F30E089819A81820F931F9A831B
:102CC00089830EC0E981FA81208189819A810196E8
:102CD0009A838983822F0E94F2158B8181508B8386
:102CE000E981FA818081882319F08B81882351F74B
:102CF0000F900F900F900F90CF91DF910895DF9379
:102D0000CF93CDB7DEB764970FB6F894DEBF0FBE92
:102D1000CDBF9B8B8A8B6C8B8C89482F50E08A8926
:102D20009B899E012F5F3F4FB9010E94BA1ECE01C1
:102D300001960E94091664960FB6F894DEBF0FBE86
:102D4000CDBFCF91DF910895DF93CF93CDB7DEB79D
:102D500066970FB6F894DEBF0FBECDBF9C8B8B8BF2
:102D60006D8B4E8B8D89482F50E08B899C899E01FD
:102D70002E5F3F4FB9010E94BA1ECE0102960E94FB
:102D8000B01E982F8E89891B8983898118167CF43F
:102D900006C089818150898380E30E94F215898170
:102DA0001816BCF3CE0102960E94091609C089814B
:102DB0008195282FCE0102966E89422F0E944E16D1
:102DC00066960FB6F894DEBF0FBECDBFCF91DF91F0
:102DD00008951F920F920FB60F9211242F933F93D5
:102DE0008F939F93EF93FF93DF93CF93CDB7DEB78E
:102DF0008091910190919001891B8032E8F490912B
:102E00008F01292F30E0ECE2F0E08081F901EB5BEB
:102E1000FD4F8083892F8F5F80938F018091910177
:102E20008F5F8093910180918F01813210F0109219
:102E30008F011092440208C0ECE2F0E080818093A0
:102E4000920181E080934402CF91DF91FF91EF9155
:102E50009F918F913F912F910F900FBE0F901F90D8
:102E60001895DF93CF930F92CDB7DEB7109244023F
:102E700090919101809190019817C9F080919001F3
:102E80008F5F8093900180918E01813210F01092BB
:102E90008E0120918E01822F90E0FC01EB5BFD4FB3
:102EA00080818983822F8F5F80938E0101C0198278
:102EB00089810F90CF91DF910895DF93CF9300D058
:102EC00000D0CDB7DEB79B838A836C8319821092C2
:102ED000440223C0809190018F5F8093900189818B
:102EE000282F30E08A819B81DC01A20FB31F209143
:102EF0008E01822F90E0FC01EB5BFD4F80818C9373
:102F000089818F5F8983822F8F5F80938E0180916B
:102F10008E01813210F010928E019091910180917A
:102F20009001981721F099818C81981798F28981E6
:102F30000F900F900F900F90CF91DF910895DF9336
:102F4000CF93CDB7DEB79091910180919001292F59
:102F5000281B822FCF91DF910895DF93CF93CDB7B8
:102F6000DEB7AAE2B0E0EAE2F0E080818F778C93EE
:102F7000ECE2F0E080818093930110928E01109238
:102F80008F01109290011092910110924402AAE2D6
:102F9000B0E0EAE2F0E0808180688C93CF91DF912D
:102FA0000895EF92FF920F931F937B018C0120E015
:102FB00030E040E05FE40E944D1B88238CF0C801A4
:102FC000B70120E030E040E05FE40E9449190E9430
:102FD000DB1B9B01AC01205030404040504806C0F4
:102FE000C801B7010E94DB1B9B01AC01B901CA01FA
:102FF0001F910F91FF90EF900895A0E0B0E0E3E003
:10300000F8E10C94791EDC012B01FA019C919230BD
:1030100008F439C1EB018881823008F433C194305F
:1030200069F4843009F02FC111969C911197898120
:10303000981709F428C1ABE6B0E025C1843009F443
:1030400021C18230A9F4923009F01DC19A01AD016D
:1030500088E0EA010990AE01E90109929E018150E0
:10306000C1F7E201898111969C918923818308C16E
:10307000923009F407C112962D903C901397EB0102
:103080008A819B811496AD90BD90CD90DC9017976E
:10309000EC80FD800E811F819101281B390BB90145
:1030A00037FF04C066277727621B730B60327105F8
:1030B0000CF061C0121613066CF537014801062E9C
:1030C00004C096948794779467940A94D2F721E089
:1030D00030E040E050E004C0220F331F441F551F72
:1030E0006A95D2F721503040404050402E213F2178
:1030F00040235123211531054105510521F021E0DF
:1031000030E040E050E079018A01E628F7280829FC
:1031100019293CC0232BD1F1260E371E350146015B
:10312000062E04C096948794779467940A94D2F7F5
:1031300021E030E040E050E004C0220F331F441F84
:10314000551F6A95D2F721503040404050402A2107
:103150003B214C215D21211531054105510521F00F
:1031600021E030E040E050E059016A01A628B7288C
:10317000C828D9280BC0821593052CF01C01AA245D
:10318000BB24650103C0EE24FF24870111969C91A6
:10319000D20111968C91981709F445C0992339F002
:1031A000A80197012A193B094C095D0906C0A6012F
:1031B00095012E193F09400B510B57FD08C0118294
:1031C0003382228224833583468357831DC081E066
:1031D00081833382228288279927DC01821B930B0B
:1031E000A40BB50B84839583A683B7830DC0220FF0
:1031F000331F441F551F24833583468357838281A1
:1032000093810197938382832481358146815781FD
:10321000DA01C9010197A109B1098F5F9F4FAF4F33
:10322000BF4328F30BC0918333822282EA0CFB1C3C
:103230000C1D1D1DE482F5820683178383E08083C5
:10324000248135814681578157FF1AC0C901AA27B9
:1032500097FDA095BA2F81709070A070B0705695B0
:10326000479537952795822B932BA42BB52B8483D9
:103270009583A683B783828193810196938382830A
:10328000DF0101C0D201CD01CDB7DEB7E2E10C9480
:10329000951EA0E2B0E0EFE4F9E10C94851E69838D
:1032A0007A838B839C832D833E834F835887E9E009
:1032B000EE2EF12CEC0EFD1ECE010196B7010E9400
:1032C000531D8E010F5E1F4FCE010596B8010E945F
:1032D000531D8A8991E089278A8BC701B801AE0105
:1032E000475E5F4F0E94FD170E947E1CA096E6E09D
:1032F0000C94A11EA0E2B0E0E0E8F9E10C94851E78
:1033000069837A838B839C832D833E834F83588785
:10331000F9E0EF2EF12CEC0EFD1ECE010196B70167
:103320000E94531D8E010F5E1F4FCE010596B801FE
:103330000E94531DC701B801AE01475E5F4F0E9456
:10334000FD170E947E1CA096E6E00C94A11EA0E250
:10335000B0E0EDEAF9E10C94791E69837A838B83FE
:103360009C832D833E834F835887CE010196BE01F7
:10337000675F7F4F0E94531DCE010596BE016F5EB1
:103380007F4F0E94531D9985923088F08989823041
:10339000C8F0943019F4823051F404C0843029F418
:1033A000923081F48BE690E0C6C0923049F420E080
:1033B0009A858A89981321E02A87CE010996BBC095
:1033C000823049F420E09A858A89981321E02A8B7B
:1033D000CE014196B0C02D843E844F8458886D88BC
:1033E0007E888F88988CEE24FF248701AA24BB2432
:1033F000650140E050E060E070E0E0E0F0E0C10135
:1034000081709070892BE9F0E60CF71C081D191DDE
:103410009A01AB012A0D3B1D4C1D5D1D80E090E023
:10342000A0E0B0E0E614F7040805190520F481E0F7
:1034300090E0A0E0B0E0BA01A901480F591F6A1F4F
:103440007B1FAA0CBB1CCC1CDD1C97FE08C081E0B6
:1034500090E0A0E0B0E0A82AB92ACA2ADB2A319677
:10346000E032F10549F0660C771C881C991C5694D3
:10347000479437942794C3CFFA85EA892B893C89EE
:103480008B859C85280F391F2E5F3F4F17C0CA01BF
:1034900081709070892B61F016950795F794E794E9
:1034A00080E090E0A0E0B0E8E82AF92A0A2B1B2B84
:1034B00076956795579547952F5F3F4F77FDE7CFF7
:1034C0000CC0440F551F661F771F17FD4160EE0C9F
:1034D000FF1C001F111F21503040403090E0590761
:1034E00090E0690790E4790760F32B8F3C8FDB0154
:1034F000CA018F779070A070B07080349105A105DB
:10350000B10561F447FD0AC0E114F104010511059C
:1035100029F0405C5F4F6F4F7F4F40781A8EFE1747
:1035200011F081E08A8F4D8F5E8F6F8F78A383E0DB
:10353000898FCE0149960E947E1CA096E2E10C94F0
:10354000951EA8E1B0E0E7EAFAE10C94811E6983D8
:103550007A838B839C832D833E834F835887B9E086
:10356000EB2EF12CEC0EFD1ECE010196B7010E9450
:10357000531D8E010F5E1F4FCE010596B8010E94AC
:10358000531D2985223008F47EC03989323010F469
:10359000B8017CC08A859A8989278A87243011F0EE
:1035A000223031F4231709F06EC06BE670E06EC074
:1035B000343039F41D861E861F86188A1C861B86A9
:1035C00004C0323021F484E08987B7015FC02B85C5
:1035D0003C858B899C89281B390B3C872B87ED8484
:1035E000FE840F851889AD88BE88CF88D88CEA14F0
:1035F000FB040C051D0540F4EE0CFF1C001F111F01
:10360000215030403C872B8720E030E040E050E004
:1036100080E090E0A0E0B0E460E070E0EA14FB0439
:103620000C051D0540F0282B392B4A2B5B2BEA1883
:10363000FB080C091D09B695A79597958795EE0C83
:10364000FF1C001F111F6F5F7F4F6F31710531F736
:10365000DA01C9018F779070A070B0708034910545
:10366000A105B10561F427FD0AC0E114F1040105CB
:10367000110529F0205C3F4F4F4F5F4F20782D8779
:103680003E874F87588BBE01675F7F4FCB010E94FB
:103690007E1C6896EAE00C949D1EA8E1B0E0E3E58C
:1036A000FBE10C94851E69837A838B839C832D8335
:1036B0003E834F83588789E0E82EF12CEC0EFD1EE7
:1036C000CE010196B7010E94531D8E010F5E1F4F60
:1036D000CE010596B8010E94531D8985823040F0C5
:1036E0008989823028F0C701B8010E94CB1D01C032
:1036F0008FEF6896E6E00C94A11EA8E0B0E0E3E846
:10370000FBE10C94821E9B01AC0183E08983DA010A
:10371000C9018827B7FD83959927AA27BB27B82E0B
:10372000211531054105510519F482E089833AC01C
:103730008823A9F0203080E0380780E0480780E83F
:10374000580729F460E070E080E09FEC30C0EE2480
:10375000FF248701E21AF30A040B150B02C079015A
:103760008A018EE1C82ED12CDC82CB82ED82FE82D2
:103770000F831887C801B7010E942F1C01971816E4
:10378000190684F4082E04C0EE0CFF1C001F111F44
:103790000A94D2F7ED82FE820F831887C81AD90ADD
:1037A000DC82CB82BA82CE0101960E947E1C2896D2
:1037B000E9E00C949E1EACE0B0E0E1EEFBE10C947D
:1037C000891E69837A838B839C83CE010196BE0117
:1037D0006B5F7F4F0E94531D8D81823061F182307B
:1037E00050F1843021F48E81882351F12EC02F8135
:1037F000388537FD20C06E812F3131051CF06623DE
:10380000F9F023C08EE190E0821B930B29853A8565
:103810004B855C8504C056954795379527958A95C5
:10382000D2F76623B1F050954095309521953F4FE2
:103830004F4F5F4F0EC020E030E040E050E009C045
:103840002FEF3FEF4FEF5FE704C020E030E040E0B4
:1038500050E8B901CA012C96E2E00C94A51EEF9243
:10386000FF920F931F937B018C0180E0E81680E0AC
:10387000F80681E0080780E0180788F48FEFE81663
:10388000F1040105110531F028F088E090E0A0E096
:10389000B0E017C080E090E0A0E0B0E012C080E0AF
:1038A000E81680E0F80680E0080781E0180728F0B5
:1038B00088E190E0A0E0B0E004C080E190E0A0E00A
:1038C000B0E020E230E040E050E0281B390B4A0B2A
:1038D0005B0B04C016950795F794E7948A95D2F789
:1038E000F701ED58FF4F8081281B3109410951092B
:1038F000C9011F910F91FF90EF900895DF92EF9211
:10390000FF920F931F93FC01E480F58006811781DD
:10391000D1808081823048F480E090E0A0E1B0E086
:10392000E82AF92A0A2B1B2BA5C0843009F49FC072
:10393000823021F4EE24FF24870105C0E114F10454
:103940000105110519F4E0E0F0E096C06281738191
:103950009FEF623879070CF05BC022E83FEF261B2F
:10396000370B2A3131052CF020E030E040E050E008
:103970002AC0B801A701022E04C076956795579515
:1039800047950A94D2F781E090E0A0E0B0E004C04F
:10399000880F991FAA1FBB1F2A95D2F70197A1096B
:1039A000B1098E219F21A023B1230097A105B10564
:1039B00021F081E090E0A0E0B0E09A01AB01282B7B
:1039C000392B4A2B5B2BDA01C9018F779070A070DD
:1039D000B07080349105A105B10539F427FF09C005
:1039E000205C3F4F4F4F5F4F04C0215C3F4F4F4F14
:1039F0005F4FE0E0F0E02030A0E03A07A0E04A07A7
:103A0000A0E45A0710F0E1E0F0E079018A0127C054
:103A10006038710564F5FB01E158FF4FD801C7011B
:103A20008F779070A070B07080349105A105B105BA
:103A300039F4E7FE0DC080E490E0A0E0B0E004C0FF
:103A40008FE390E0A0E0B0E0E80EF91E0A1F1B1F14
:103A500017FF05C016950795F794E794319687E010
:103A600016950795F794E7948A95D1F705C0EE244B
:103A7000FF248701EFEFF0E06E2F679566276795CB
:103A8000902F9F77D794DD24D7948E2F8695492F3A
:103A9000462B582F5D29B701CA011F910F91FF9046
:103AA000EF90DF900895FC01DB014081518122817C
:103AB000622F6F7770E0221F2227221F9381892FA8
:103AC000880F822B282F30E0991F9927991F119674
:103AD0009C93119721153105A9F5411551056105F3
:103AE000710511F482E037C082E89FEF13969C9332
:103AF0008E9312979A01AB0167E0220F331F441F88
:103B0000551F6A95D1F783E08C930DC0220F331FA8
:103B1000441F551F12968D919C91139701971396F0
:103B20009C938E931297203080E0380780E04807FE
:103B300080E4580758F314962D933D934D935C936E
:103B4000179708952F3F310579F441155105610507
:103B5000710519F484E08C93089564FF03C081E03B
:103B60008C9312C01C9210C02F57304013963C9378
:103B70002E93129783E08C9387E0440F551F661FA6
:103B8000771F8A95D1F7706414964D935D936D936A
:103B90007C93179708951F93DC01FB019C91923051
:103BA00008F447C08081823008F443C0943051F457
:103BB00011961C91843099F58181682F70E0611B0A
:103BC00071093FC0843021F0923031F48230B9F174
:103BD0008181882389F12DC011961C911197823023
:103BE000F1F081811817D9F412962D913C91139719
:103BF000828193818217930794F028173907BCF0CC
:103C000014968D919D910D90BC91A02D24813581AC
:103C100046815781281739074A075B0718F4112393
:103C200041F00AC082179307A407B50740F4112397
:103C300019F061E070E005C06FEF7FEF02C060E057
:103C400070E0CB011F910895629FD001739FF00136
:103C5000829FE00DF11D649FE00DF11D929FF00D1C
:103C6000839FF00D749FF00D659FF00D9927729F53
:103C7000B00DE11DF91F639FB00DE11DF91FBD01DE
:103C8000CF0111240895AA1BBB1B51E107C0AA1F35
:103C9000BB1FA617B70710F0A61BB70B881F991FED
:103CA0005A95A9F780959095BC01CD010895A1E2A0
:103CB0001A2EAA1BBB1BFD010DC0AA1FBB1FEE1FA6
:103CC000FF1FA217B307E407F50720F0A21BB30BF1
:103CD000E40BF50B661F771F881F991F1A9469F76D
:103CE00060957095809590959B01AC01BD01CF01C9
:103CF00008952F923F924F925F926F927F928F9290
:103D00009F92AF92BF92CF92DF92EF92FF920F936A
:103D10001F93CF93DF93CDB7DEB7CA1BDB0B0FB674
:103D2000F894DEBF0FBECDBF09942A883988488831
:103D30005F846E847D848C849B84AA84B984C884C7
:103D4000DF80EE80FD800C811B81AA81B981CE0FBE
:103D5000D11D0FB6F894DEBF0FBECDBFED010895A3
:103D6000E82FF92F01900020E9F7809590958E0FAC
:103D70009F1F0895E62FF72F2E2F3F2FE8944230F4
:103D8000C4F04532B4F44A3029F497FB1EF4909500
:103D900081959F4F642F772776DF805D8A330CF003
:103DA000895D8193862F972F0097A1F716F45DE226
:103DB00051931082822F932F00C0A82FB92FE82F84
:103DC000F92F672F71917723E1F7329704C07C9127
:103DD0006D9370836291AE17BF07C8F30895F8948E
:023DE000FFCF13
:103DE2003C009C041E0601520D700D0000000000F4
:103DF200000000000102020303030304040404049C
:103E02000404040505050505050505050505050563
:103E12000505050606060606060606060606060643
:103E22000606060606060606060606060606060630
:103E32000606060707070707070707070707070713
:103E42000707070707070707070707070707070700
:103E520007070707070707070707070707070707F0
:103E620007070707070707070707070707070707E0
:103E720007070708080808080808080808080808C3
:103E820008080808080808080808080808080808B0
:103E920008080808080808080808080808080808A0
:103EA2000808080808080808080808080808080890
:103EB2000808080808080808080808080808080880
:103EC2000808080808080808080808080808080870
:103ED2000808080808080808080808080808080860
:103EE2000808080808080808080808080808080850
:043EF20008080800B4
:00000001FF
