:100000000C9409010C94E1050C9407060C941F0D47
:100010000C946B0C0C9426010C9426010C94260174
:100020000C9426010C9426010C9429110C942601A1
:100030000C9426010C94F8160C9426010C942601BD
:100040000C9426010C9426010C9426010C941D1589
:100050000C94260154686520526F626F74206E659F
:1000600065647320746F20626520726573657474B3
:100070006564206E6F772E0A0A00596F75206E65D1
:10008000656420746F20636865636B204D6F746FC7
:100090007220617373656D626C7920286F722079AC
:1000A0006F757220736F667477617265292E0A0A04
:1000B000000A0A28732E207461736B5F6D6F746F72
:1000C00072436F6E74726F6C28292066756E63744C
:1000D000696F6E20696E205250364C696221290A80
:1000E000000A0A232323204D4F544F52204F5645D8
:1000F0005243555252454E54202323230A00596F30
:1001000075206E65656420746F20636865636B207D
:10011000456E636F6465722F4D6F746F72206173EB
:1001200073656D626C7920286F7220796F7572200B
:10013000736F667477617265292E0A0A00210A0AB4
:1001400028732E207461736B5F6D6F746F72436FD1
:100150006E74726F6C28292066756E6374696F6E99
:1001600020696E205250364C696221290A0052499A
:10017000474854004C4546540041666665637465C3
:1001800064206368616E6E656C3A000A2323232045
:10019000454E434F44455220284F52204D4F544F17
:1001A0005229204D414C46554E4354494F4E212033
:1001B0002323230A00232323232320414C4C204FB5
:1001C0005045524154494F4E532053544F5050457F
:1001D0004420544F2050524556454E5420414E59CC
:1001E0002044414D414745212023232323230A0056
:1001F0000A0A232323232320454D455247454E43D6
:10020000592053485554444F574E2023232323232A
:100210000A0011241FBECFE5D8E0DEBFCDBF11E03C
:10022000A0E6B0E0E2EFFEE302C005900D92A43735
:10023000B107D9F712E0A4E7B1E001C01D92AC36D6
:10024000B107E1F70E9428010C94771F0C9400007D
:10025000DF93CF93CDB7DEB780E590E09093610058
:100260008093600080E991E09093A1018093A001C8
:1002700084EF91E090939E0180939D0188E592E048
:1002800090939C0180939B018CEB92E090939A0158
:10029000809399011092FE011092FD011092F001DD
:1002A0001092EF0180E590E0909398018093970180
:1002B00080E590E090939301809392010E946714EF
:1002C0008CED95E00E94EE130E94ED1080E00E94FC
:1002D0003A0481E00E943A0482E00E943A0484E0F9
:1002E0000E943A048AE00E943A048091970190911A
:1002F0009801282F8091920190919301982F822F3D
:10030000692F0E947A090E94D4060E943C05EDCF15
:100310000F931F93DF93CF9300D000D000D0CDB7C1
:10032000DEB79A8389837C836B835E834D832091C0
:10033000FD013091FE0189819A812817390749F41E
:1003400089819A812B813C814D815E81B9010E9416
:10035000F00189819A812D813E81B9010E94E802D4
:100360009C0189819A81280F391F8091FD0190910C
:10037000FE012817390749F489819A812B813C8134
:10038000B90142E050E00E94F00189819A818C011C
:10039000000F111F89819A812D813E81B9010E9430
:1003A000E8029801280F391F8091FD019091FE010C
:1003B0002817390750F40E94360A109298011092BB
:1003C0009701109293011092920126960FB6F8941D
:1003D000DEBF0FBECDBFCF91DF911F910F9108956A
:1003E000EF92FF920F931F93DF93CF93CDB7DEB7BA
:1003F00028970FB6F894DEBF0FBECDBF9A838983CE
:100400007C836B835E834D838D819E8198878F83F0
:100410008F8198858130910561F08F819885823038
:10042000910509F4BCC08F819885009709F45CC0E0
:10043000C2C08B819C819093980180939701809199
:10044000970190919801AA2797FDA095BA2FBC011A
:10045000CD010E948C1B7B018C0189819A81CC018A
:10046000A0E0B0E0BC01CD010E943E1CDC01CB014C
:10047000BC01CD0120E030E04EE452E40E94891935
:10048000DC01CB019C01AD01C801B7010E94B01A8B
:10049000DC01CB017C018D0189819A81CC01A0E036
:1004A000B0E0BC01CD010E943E1CDC01CB01BC01CF
:1004B000CD0120E030E04EE452E40E945819DC0106
:1004C000CB019C01AD01C801B7010E94B619DC0146
:1004D000CB01BC01CD010E94EA1BDC01CB01909352
:1004E00093018093920167C08B819C8190939301CB
:1004F000809392018091920190919301AA2797FD98
:10050000A095BA2FBC01CD010E948C1B7B018C01F0
:1005100089819A81CC01A0E0B0E0BC01CD010E94AC
:100520003E1CDC01CB01BC01CD0120E030E04EE4FB
:1005300052E40E948919DC01CB019C01AD01C80184
:10054000B7010E94B01ADC01CB017C018D018981C9
:100550009A81CC01A0E0B0E0BC01CD010E943E1C1C
:10056000DC01CB01BC01CD0120E030E04EE452E4DF
:100570000E945819DC01CB019C01AD01C801B701F3
:100580000E94B619DC01CB01BC01CD010E94EA1B1F
:10059000DC01CB0190939801809397010CC08B8173
:1005A0009C8190939801809397018B819C8190937B
:1005B00093018093920128960FB6F894DEBF0FBE88
:1005C000CDBFCF91DF911F910F91FF90EF900895D4
:1005D000DF93CF93CDB7DEB728970FB6F894DEBF81
:1005E0000FBECDBF9C838B837E836D831A8219825D
:1005F0008D819E8198878F838F819885009709F4DC
:1006000042C08F8198858130910509F077C08B8138
:100610009C81CC01A0E0B0E0BC01CD010E943E1C59
:10062000DC01CB01BC01CD0120E030E04EE452E41E
:100630000E948919DC01CB01BC01CD0127E836E11C
:1006400049EC50E40E94B619DC01CB01BC01CD019C
:1006500020E030E040E450E40E94B619DC01CB0118
:10066000BC01CD0120E030E040E850E40E94B01A27
:10067000DC01CB01BC01CD010E94E017DC01CB0104
:100680009A8389833BC08B819C81CC01A0E0B0E040
:10069000BC01CD010E943E1CDC01CB01BC01CD019F
:1006A00020E030E04EE452E40E945819DC01CB0116
:1006B000BC01CD0127E836E149EC50E40E94B619AF
:1006C000DC01CB01BC01CD0120E030E040E450E48E
:1006D0000E94B619DC01CB01BC01CD0120E030E065
:1006E00040E850E40E94B01ADC01CB01BC01CD010E
:1006F0000E94E017DC01CB019A83898389819A816A
:1007000028960FB6F894DEBF0FBECDBFCF91DF9114
:100710000895DF93CF93CDB7DEB78091B6018430D3
:1007200010F01092B601CF91DF910895DF93CF932F
:10073000CDB7DEB784E08093B601CF91DF91089505
:10074000DF93CF9300D0CDB7DEB7A7E3B0E0E7E308
:10075000F0E080818C778C93A8E3B0E0E8E3F0E0F0
:1007600080818C778C9380919F018870882371F0B1
:10077000A7E3B0E0E7E3F0E0808180688C93A8E332
:10078000B0E0E8E3F0E0808180688C9380919F0185
:100790008071882371F0A7E3B0E0E7E3F0E08081A7
:1007A00082608C93A8E3B0E0E8E3F0E080818260AF
:1007B0008C9380919F018072882371F0A7E3B0E051
:1007C000E7E3F0E0808181608C93A8E3B0E0E8E3A8
:1007D000F0E0808181608C93A4E3B0E0E4E3F0E09A
:1007E00080818F788C93A5E3B0E0E5E3F0E0808131
:1007F0008F788C93A4E3B0E0E4E3F0E08081282FCD
:1008000080919F01882F90E082959295907F982704
:10081000807F98278077822B8C93A5E3B0E0E5E377
:10082000F0E08081282F80919F01882F90E08295B1
:100830009295907F9827807F98278077822B8C9342
:100840008091B601882359F480919F018A838A811F
:10085000882311F081E08A838A81898303C0809193
:10086000B601898389818093B6010F900F90CF9153
:10087000DF910895DF93CF930F92CDB7DEB78983D1
:10088000898180939F010E94A0030F90CF91DF91F7
:100890000895DF93CF930F92CDB7DEB7A8E3B0E012
:1008A000E8E3F0E080818E7F8C93A7E3B0E0E7E39C
:1008B000F0E080818E7F8C930000E6E3F0E08081A1
:1008C0008170898380919F018072882371F0A7E3F2
:1008D000B0E0E7E3F0E0808181608C93A8E3B0E0D2
:1008E000E8E3F0E0808181608C9389810F90CF9163
:1008F000DF910895DF93CF930F92CDB7DEB7A5E3D5
:10090000B0E0E5E3F0E080818F7B8C93A4E3B0E07E
:10091000E4E3F0E080818F7B8C930000E3E3F0E080
:1009200080818074898380919F018470882371F015
:10093000A4E3B0E0E4E3F0E0808180648C93A5E37D
:10094000B0E0E5E3F0E0808180648C9389810F90D2
:10095000CF91DF910895DF93CF93CDB7DEB7CF91DD
:10096000DF910895DF93CF9300D0CDB7DEB79A83A0
:10097000898389819A8190936300809362000F90AC
:100980000F90CF91DF910895DF93CF9300D0CDB733
:10099000DEB78091EE018333E8F00E9449048A8338
:1009A0000E947A0489839091A2018A81981729F480
:1009B0009091FF018981981759F08A818093A20153
:1009C00089818093FF01E0916200F09163000995B5
:1009D0001092EE010F900F90CF91DF910895DF9369
:1009E000CF9300D00F92CDB7DEB78983E6E2F0E077
:1009F0008081882F90E080749070009719F01B829E
:100A00001A821FC0E7E2F0E0898180648083E6E219
:100A1000F0E086ED8083E6E2F0E08081882F90E0D0
:100A2000807490700097B9F7A6E2B0E0E6E2F0E0DB
:100A3000808180618C93E4E2F0E0808191819B83EE
:100A40008A838A819B810F900F900F90CF91DF91C5
:100A50000895DF93CF930F92CDB7DEB78983E7E296
:100A6000F0E0898180648083E6E2F0E086ED8083B7
:100A70000F90CF91DF910895DF93CF9300D0CDB742
:100A8000DEB7E6E2F0E08081882F90E0807490701D
:100A9000009709F091C080917901282F30E03A83C6
:100AA000298389819A818330910509F44AC029817B
:100AB0003A81243031057CF489819A818130910515
:100AC00041F129813A81223031057CF589819A8171
:100AD000009799F065C029813A812530310509F4E4
:100AE00048C089819A8185309105BCF129813A817C
:100AF0002630310509F449C053C0E4E2F0E08081BA
:100B00009181909303028093020286E00E9429055E
:100B100047C0E4E2F0E080819181909308028093E5
:100B2000070285E00E9429053BC0E4E2F0E08081F5
:100B300091819093F9018093F80183E00E94290547
:100B40002FC0E4E2F0E0808191819093C201809314
:100B5000C10182E00E94290523C0E4E2F0E0808127
:100B600091819093E8018093E70180E00E9429053C
:100B700017C0E4E2F0E0808191819093F6018093C8
:100B8000F50181E00E9429050BC0E4E2F0E08081DC
:100B900091819093C0018093BF0187E00E94290555
:100BA00080917901863019F41092790105C0809105
:100BB00079018F5F809379010F900F90CF91DF9132
:100BC00008951F920F920FB60F9211248F939F9347
:100BD000DF93CF93CDB7DEB78091FD019091FE01F9
:100BE00001969093FE018093FD018091F301909115
:100BF000F40101969093F4018093F301CF91DF917A
:100C00009F918F910F900FBE0F901F9018951F927C
:100C10000F920FB60F9211248F939F93DF93CF9370
:100C2000CDB7DEB78091EF019091F00101969093DE
:100C3000F0018093EF018091C9019091CA01019662
:100C40009093CA018093C901CF91DF919F918F91B9
:100C50000F900FBE0F901F901895DF93CF93CDB7D5
:100C6000DEB7CF91DF910895DF93CF9300D0CDB75A
:100C7000DEB79A83898389819A81909365008093F6
:100C800064000F900F90CF91DF910895DF93CF9381
:100C900000D0CDB7DEB78A83F894A2E3B0E0E2E3F8
:100CA000F0E080818F778C930E9453101092B801EE
:100CB0001092B7011092C8011092C7011092B201B0
:100CC0001092B1011092ED011092EC011092060207
:100CD0001092E401EAE4F0E01082E8E4F0E010822F
:100CE000EFE4F0E010820E94021180EF91E00E9498
:100CF000351685EB91E00E9435168A81813019F016
:100D00008A818230E9F48BE891E00E94351689E708
:100D100091E00E9435168A81813029F484E791E0C0
:100D20000E94351604C08EE691E00E9435168DE3D0
:100D300091E00E9435168EEF90E00E9435160FC0AC
:100D40008A81833061F481EE90E00E94351681EB58
:100D500090E00E9435168AE790E00E94351684E5FF
:100D600090E00E94351686E30E943A048AE0898367
:100D700007C080E090E80E940F1489818150898328
:100D800089818823B1F780E00E943A048AE0898350
:100D900007C08FEF9FEF0E940F14898181508983D4
:100DA00089818823B1F7DFCFDF93CF93CDB7DEB74B
:100DB00028970FB6F894DEBF0FBECDBF8091E30138
:100DC000823308F47EC01092E3018091E001882311
:100DD00009F043C0809107029091080223E083301C
:100DE000920740F48091F8019091F90143E083303B
:100DF0009407F0F08091E2018F5F8093E2018AE036
:100E00008093E0011092B8011092B7011092C801CE
:100E10001092C7011092B2011092B1011092ED012F
:100E20001092EC018091960184608093960159C2E2
:100E3000809196018B7F809396018091AD018536DC
:100E400028F01092E2011092AD0107C08091E201FA
:100E5000833018F083E00E9446068091070290914B
:100E600008028639910598F48091B9019091BA01F0
:100E7000009769F48091A7019091A801009739F03B
:100E800080910602873918F081E00E944606809121
:100E9000F8019091F9018639910598F48091FB0150
:100EA0009091FC01009769F48091A5019091A601B1
:100EB000009739F08091E401873918F082E00E94B0
:100EC00046068091B501882309F4FCC18091E001B8
:100ED000882309F0F0C18091E201882331F08091EC
:100EE000AD018F5F8093AD0102C01092AD01809182
:100EF00096018270882309F43FC02091FD01309152
:100F0000FE018091A3019091A4012817390790F068
:100F10001092A8011092A7011092B2011092B10193
:100F20001092B8011092B701809196018D7F809345
:100F3000960122C02091FD013091FE018091BB01FC
:100F40009091BC0128173907B8F08091A7019091C2
:100F5000A801969587959093A8018093A701809109
:100F6000A7019091A8018631910530F486E190E0C7
:100F70009093A8018093A7018091960181708823A6
:100F800009F43FC02091EF013091F0018091C5013B
:100F90009091C6012817390790F01092A60110927F
:100FA000A5011092ED011092EC011092C80110926F
:100FB000C701809196018E7F8093960122C0209177
:100FC000EF013091F0018091F1019091F201281729
:100FD0003907B8F08091A5019091A6019695879563
:100FE0009093A6018093A5018091A5019091A601FF
:100FF0008631910530F486E190E09093A6018093CC
:10100000A5019091740180917601981739F490911F
:10101000750180917701981709F464C08091A70148
:101020009091A801009731F48091A5019091A601BB
:10103000009741F18091A7019091A8019093AA0196
:101040008093A9018091A5019091A6019093BE0182
:101050008093BD011092A8011092A7011092A601E1
:101060001092A5011092C8011092C7011092B80108
:101070001092B7011092B2011092B1011092ED01DD
:101080001092EC01EFE4F0E08081882359F5809123
:10109000740190917501692F0E94F70B8091A9014D
:1010A0009091AA019093A8018093A7018091BD011E
:1010B0009091BE019093A6018093A5018091A70114
:1010C0009091A801969587959093B2018093B10174
:1010D0008091A5019091A601969587959093ED0139
:1010E0008093EC012091A7013091A8018091B90172
:1010F0009091BA01A901481B590BCA019C838B83AB
:101100002091B1013091B2018B819C81820F931F9C
:101110009093B2018093B1018091B1019091B2019D
:1011200051E0853A950734F084EA91E09093B2015A
:101130008093B1018091B1019091B2012EEF8C3575
:10114000920734F48CE59EEF9093B2018093B10145
:101150008091B9019091BA01009751F48091A70153
:101160009091A801009721F41092B2011092B10160
:101170008091B1019091B2019E838D834D815E81FA
:1011800055232CF48D819E8101969E838D838D81C4
:101190009E81959587959093B8018093B701809132
:1011A000B7019091B801833D910534F082ED90E054
:1011B0009093B8018093B7018091B7019091B801E5
:1011C000992324F41092B8011092B7012091A5013F
:1011D0003091A6018091FB019091FC01A901481B6F
:1011E000590BCA019A8389832091EC013091ED015A
:1011F00089819A81820F931F9093ED018093EC0176
:101200008091EC019091ED0151E0853A950734F021
:1012100084EA91E09093ED018093EC018091EC01E0
:101220009091ED012EEF8C35920734F48CE59EEF12
:101230009093ED018093EC018091FB019091FC0172
:10124000009751F48091A5019091A601009721F497
:101250001092ED011092EC018091EC019091ED0162
:1012600098878F834F81588555232CF48F819885DB
:10127000019698878F838F81988595958795909310
:10128000C8018093C7018091C7019091C801833D37
:10129000910534F082ED90E09093C8018093C701EE
:1012A0008091C7019091C801992354F41092C8010C
:1012B0001092C70105C08091E00181508093E00148
:1012C0001092B5019091960180910102981749F012
:1012D0008091960180930102E0916400F091650095
:1012E000099528960FB6F894DEBF0FBECDBFCF91FB
:1012F000DF910895DF93CF9300D0CDB7DEB7898318
:101300006A838981893C10F088EC89838A81893CD1
:1013100010F088EC8A838981882F90E09093A8014F
:101320008093A7018A81882F90E09093A6018093F3
:10133000A5010F900F90CF91DF910895DF93CF9388
:1013400000D000D00F92CDB7DEB78983898180931A
:1013500078018981813019F08981823029F481E016
:1013600090E09D838C8302C01D821C828C818093BF
:1013700074018981813019F08981833029F481E0F9
:1013800090E09B838A8302C01B821A828A818093A9
:1013900075010F900F900F900F900F90CF91DF91EC
:1013A0000895DF93CF93CDB7DEB72A970FB6F894A1
:1013B000DEBF0FBECDBF9C838B837E836D831A8679
:1013C0008B819C81992314F481E08A878A8580939C
:1013D000740119868D819E81992314F481E0898797
:1013E0008985809375018B819C81181619061CF4E0
:1013F0008B81888703C08B818195888788858A83C4
:101400008B819C81181619061CF48D818F8303C073
:101410008D8181958F838F8189838A8169810E94E3
:101420007A092A960FB6F894DEBF0FBECDBFCF91D2
:10143000DF910895DF93CF9300D0CDB7DEB78091D1
:1014400096018170882351F48091960182708823DF
:1014500029F481E090E09A83898302C01A8219827C
:1014600089810F900F90CF91DF910895DF93CF93F3
:10147000CDB7DEB71092A8011092A7011092A60175
:101480001092A5011092B2011092B1011092ED01DB
:101490001092EC01809196018E7F8093960180914D
:1014A00096018D7F80939601809196018093010231
:1014B000E0916400F09165000995CF91DF91089566
:1014C000DF93CF9300D000D00F92CDB7DEB78983E2
:1014D0006A835C834B832D83809196018160809326
:1014E0009601809196018260809396011092F2019C
:1014F0001092F1011092BC011092BB0189818731D9
:10150000D0F08981282F30E086EF9FEF821B930B6C
:10151000880F991F9C018B819C81820F931F909350
:10152000F2018093F1018091F1019091F201909389
:10153000BC018093BB018B819C8102979093C60173
:101540008093C5018091C5019091C6019093A4013B
:101550008093A3018B819C818832910500F588E2FC
:1015600090E09C838B8384E190E09093C60180930C
:10157000C5018091C5019091C6019093A40180930B
:10158000A3018AE090E09093F2018093F1018091B1
:10159000F1019091F2019093BC018093BB018B818A
:1015A0009C8121E080399207E0F489818932C8F07A
:1015B00088E289838B819C819C013695279536959D
:1015C00027958B819C81821B930B9093F2018093D2
:1015D000F1018091F1019091F2019093BC0180930F
:1015E000BB011092FE011092FD011092F0011092C9
:1015F000EF01898169810E947A098A810E949E098E
:101600008B819C819093CE018093CD018B819C81B5
:101610009093AF018093AE01809196018093010277
:101620008091960180930102E0916400F091650041
:1016300009958D81882339F002C00E9458140E94B8
:101640001A0A8823D1F30F900F900F900F900F90EC
:10165000CF91DF910895DF93CF93CDB7DEB7279772
:101660000FB6F894DEBF0FBECDBF8B836C835E8355
:101670004D832F83809196018160809396018091A4
:1016800096018260809396018D819E81CC01A0E0BD
:10169000B0E020EB32E040E050E0BC01CD010E9420
:1016A000AC1EDC01CB0124E630E040E050E0BC01A0
:1016B000CD010E94DF1EDA01C9019A8389838981E5
:1016C0009A81845690409093F2018093F101898130
:1016D0009A81845690409093BC018093BB0189818C
:1016E0009A819093C6018093C50189819A819093D4
:1016F000A4018093A30189819A8188329105E0F445
:1017000088E290E09A83898384E190E09093C60117
:101710008093C50184E190E09093A4018093A3019C
:101720008AE090E09093F2018093F1018AE090E0EA
:101730009093BC018093BB018B816B810E947A09DD
:101740008C810E949E091092FE011092FD01109260
:10175000F0011092EF0189819A819093CE018093DC
:10176000CD0189819A819093AF018093AE018091E0
:10177000960180930102E0916400F0916500099563
:101780008F81882339F002C00E9458140E941A0ADF
:101790008823D1F327960FB6F894DEBF0FBECDBFD6
:1017A000CF91DF910895DF93CF9300D0CDB7DEB70F
:1017B00089836A838981833D10F082ED89838A81E0
:1017C000833D10F082ED8A838A81882F90E0909388
:1017D000C8018093C7018981882F90E09093B80158
:1017E0008093B7010F900F90CF91DF910895DF9311
:1017F000CF9300D0CDB7DEB789836A838981809388
:1018000076018A81809377018981809374018A812E
:10181000809375018981882341F0A5E3B0E0E5E379
:10182000F0E0808184608C9307C0A5E3B0E0E5E33D
:10183000F0E080818B7F8C938A81882341F0A5E33F
:10184000B0E0E5E3F0E0808188608C9307C0A5E319
:10185000B0E0E5E3F0E08081877F8C930F900F90FC
:10186000CF91DF910895DF93CF9300D0CDB7DEB74E
:1018700089836A8307C0A9E5B0E0E9E5F0E08081EB
:1018800080688C938091AC018823A9F78981882F87
:1018900090E08F7390709C010024369527950794F3
:1018A000369527950794322F202D8A81882F90E036
:1018B0008F739070822B932B90639093CC018093C5
:1018C000CB018091AB0180648093AB010F900F90AE
:1018D000CF91DF9108951F920F920FB60F921124AE
:1018E0008F939F93AF93BF93EF93FF93DF93CF9328
:1018F000CDB7DEB780916600823008F065C0809178
:101900007A018823D9F180917A018C33C8F48091CF
:10191000E5019091E60180709074009749F0A2E390
:10192000B0E0E2E3F0E0908180E889278C9320C06A
:10193000A2E3B0E0E2E3F0E080818F778C9318C0FF
:101940008091E5019091E60180709074009741F0DC
:10195000A2E3B0E0E2E3F0E080818F778C9308C0EF
:10196000A2E3B0E0E2E3F0E0908180E889278C9385
:1019700080917A01815080937A0154C08091AC01AA
:101980008823D1F0A2E3B0E0E2E3F0E080818F773A
:101990008C938091E5019091E601880F991F9093B7
:1019A000E6018093E50188E780937A018091AC019C
:1019B00081508093AC0136C0A2E3B0E0E2E3F0E0F6
:1019C00080818F778C932EC08091B0018823E1F0C5
:1019D0008091AB018170882349F4A8E3B0E0E8E38B
:1019E000F0E0908180E489278C9308C0A5E3B0E003
:1019F000E5E3F0E0908180E889278C938091B00145
:101A000081508093B0010EC0A8E3B0E0E8E3F0E0BD
:101A1000808180648C93A5E3B0E0E5E3F0E0808111
:101A200080688C93CF91DF91FF91EF91BF91AF913F
:101A30009F918F910F900FBE0F901F9018951F923E
:101A40000F920FB60F9211248F939F93EF93FF93F2
:101A5000DF93CF930F92CDB7DEB7809166008330CE
:101A600021F0809166008630C1F48091AB018071D5
:101A7000882399F48091AB018072882371F0E6E3AA
:101A8000F0E08081882F90E084709070009729F4B6
:101A9000809100028F5F80930002E6E3F0E0808196
:101AA0008091AB018D7F8093AB010F90CF91DF913F
:101AB000FF91EF919F918F910F900FBE0F901F900C
:101AC0001895DF93CF9300D0CDB7DEB79A83898383
:101AD0000F900F90CF91DF910895DF93CF9300D0B7
:101AE000CDB7DEB79A83898389819A819093680004
:101AF000809367000F900F90CF91DF910895DF934F
:101B0000CF93CDB7DEB7CF91DF910895DF93CF9319
:101B100000D0CDB7DEB79A83898389819A8190936B
:101B20006A00809369000F900F90CF91DF91089524
:101B3000DF93CF93CDB7DEB72E970FB6F894DEBF05
:101B40000FBECDBF8091C3019091C4018230910539
:101B500008F44DC28091AB018071882309F024C242
:101B600080916600282F30E03E872D878D859E85E9
:101B70008230910509F4B9C02D853E8523303105A9
:101B800054F48D859E850097C9F02D853E852130C2
:101B9000310589F10FC28D859E858530910509F447
:101BA00054C12D853E852630310509F483C18D85CC
:101BB0009E858330910509F4CDC0FCC1A9E5B0E054
:101BC000E9E5F0E080818F778C93A2E3B0E0E2E377
:101BD000F0E080818F778C93A8E3B0E0E8E3F0E059
:101BE000808180648C93A5E3B0E0E5E3F0E0808140
:101BF00080688C93DFC18091AC01882309F04DC0CF
:101C00008091AB0180748823C1F08091CB019091C9
:101C1000CC019093E6018093E5018EE08093AC01C6
:101C20008091AB018F7B8093AB01A9E5B0E0E9E542
:101C3000F0E0808180688C931CC0A9E5B0E0E9E504
:101C4000F0E080818F778C93A2E3B0E0E2E3F0E0F4
:101C500080818F778C93A8E3B0E0E8E3F0E08081A7
:101C600080648C93A5E3B0E0E5E3F0E080818068D8
:101C70008C9390917F019C871B862C85243110F0DA
:101C800031E03B878C858F5F80937F018B85882334
:101C900059F082E08093660007C0A9E5B0E0E9E56D
:101CA000F0E0808180688C938091AB0188708823FC
:101CB00009F480C1E0916700F0916800809104020E
:101CC00090910502099580910402909105029093EC
:101CD000B4018093B3011092050210920402809126
:101CE000AB01877F8093AB0165C1A9E5B0E0E9E571
:101CF000F0E080818F778C93A2E3B0E0E2E3F0E044
:101D000080818F778C93A8E3B0E0E8E3F0E08081F6
:101D100080648C93A5E3B0E0E5E3F0E08081806827
:101D20008C931092B0011092000210927E011092DA
:101D30007D018091AB018E7F8093AB018091AB01DF
:101D400080628093AB0183E080937F0183E0809386
:101D5000660030C18091B0018823E1F490917F0149
:101D60009A8719862A85233010F031E039878A85D1
:101D70008F5F80937F018985882361F0A9E5B0E0BA
:101D8000E9E5F0E0808180688C9388E28093B0017F
:101D900010927F018091E101882369F08091000217
:101DA000823048F01092000281E08093E10185E0EA
:101DB00080936600FFC080910002863048F0109248
:101DC000000281E08093E10185E080936600F2C02B
:101DD00020917D0130917E0138872F831E828F8173
:101DE00098858E30910510F091E09E838F819885C3
:101DF000019690937E0180937D012E81222309F428
:101E0000D9C01092E10185E080936600A9E5B0E0B9
:101E1000E9E5F0E080818F778C93A2E3B0E0E2E324
:101E2000F0E080818F778C93A8E3B0E0E8E3F0E006
:101E3000808180648C93A5E3B0E0E5E3F0E08081ED
:101E400080688C931092B001B5C0A9E5B0E0E9E5D7
:101E5000F0E080818F778C93A2E3B0E0E2E3F0E0E2
:101E600080818F778C93A8E3B0E0E8E3F0E0808195
:101E700080648C93A5E3B0E0E5E3F0E080818068C6
:101E80008C931092B0011092000210927E01109279
:101E90007D018091AB0181608093AB018091AB01AA
:101EA00080628093AB0183E080937F0186E0809322
:101EB000660080C08091B0018823E1F430917F01F9
:101EC0003D831C828D81833010F091E09C838D8155
:101ED0008F5F80937F012C81222361F0A9E5B0E020
:101EE000E9E5F0E0808180688C9388E28093B0011E
:101EF00010927F018091EA01882369F080910002AD
:101F0000823048F01092000281E08093EA0181E083
:101F1000809366004FC080910002863048F0109296
:101F2000000281E08093EA0181E08093660042C074
:101F300080917D0190917E019B838A8319822A8101
:101F40003B812E30310510F031E039838A819B814D
:101F5000019690937E0180937D018981882351F1C0
:101F60001092EA0181E080936600A9E5B0E0E9E51E
:101F7000F0E080818F778C93A2E3B0E0E2E3F0E0C1
:101F800080818F778C93A8E3B0E0E8E3F0E0808174
:101F900080648C93A5E3B0E0E5E3F0E080818068A5
:101FA0008C931092B00106C010927E0110927D01B8
:101FB00010927F0190917C018091E101981731F49A
:101FC00090917B018091EA01981769F08091E1017D
:101FD00080937C018091EA0180937B01E09169000C
:101FE000F0916A0009951092C4011092C3012E96D7
:101FF0000FB6F894DEBF0FBECDBFCF91DF9108952D
:10200000DF93CF93CDB7DEB710926600A9E5B0E0BD
:10201000E9E5F0E080818F778C93A2E3B0E0E2E322
:10202000F0E080818F778C93A8E3B0E0E8E3F0E004
:10203000808180648C93A5E3B0E0E5E3F0E08081EB
:1020400080688C931092EA011092E101CF91DF91A8
:102050000895DF93CF93CDB7DEB7A9E5B0E0E9E50A
:10206000F0E080818F778C93A2E3B0E0E2E3F0E0D0
:1020700080818F778C93A8E3B0E0E8E3F0E0808183
:1020800080648C93A5E3B0E0E5E3F0E080818068B4
:102090008C931092EA011092E10181E08093660036
:1020A000CF91DF910895DF93CF93CDB7DEB7A1E352
:1020B000B0E0E1E3F0E080818F7B8C93A2E3B0E0BD
:1020C000E2E3F0E080818F7B8C93A7E3B0E0E7E36D
:1020D000F0E08081877F8C93A8E3B0E0E8E3F0E054
:1020E0008081877F8C93A8E3B0E0E8E3F0E0808113
:1020F0008F7B8C93A5E3B0E0E5E3F0E080818F7700
:102100008C93CF91DF910895DF93CF93CDB7DEB756
:10211000A1E3B0E0E1E3F0E0808180648C93A2E38E
:10212000B0E0E2E3F0E0808180648C93A7E3B0E06C
:10213000E7E3F0E08081877F8C93A8E3B0E0E8E3F9
:10214000F0E08081877F8C93CF91DF910895DF93BA
:10215000CF93CDB7DEB7A1E3B0E0E1E3F0E080815B
:102160008F7B8C93A2E3B0E0E2E3F0E080818F7B91
:102170008C93A7E3B0E0E7E3F0E0808188608C9384
:10218000A8E3B0E0E8E3F0E0808188608C93CF9131
:10219000DF910895DF93CF93CDB7DEB7A1E3B0E031
:1021A000E1E3F0E0808180648C93A2E3B0E0E2E3BD
:1021B000F0E0808180648C93A7E3B0E0E7E3F0E097
:1021C000808188608C93A8E3B0E0E8E3F0E0808150
:1021D00088608C93CF91DF910895DF93CF93CDB733
:1021E000DEB7A8E3B0E0E8E3F0E0808180618C93A3
:1021F0008091B601843018F483E08093B601CF91CA
:10220000DF910895DF93CF9300D0CDB7DEB7A8E379
:10221000B0E0E8E3F0E080818F7E8C938091B6019E
:10222000843090F48091B601882321F480919F013D
:10223000882329F081E090E09A83898302C01A8282
:10224000198289818093B6010F900F90CF91DF9111
:1022500008951F920F920FB60F9211242F933F9360
:102260005F936F937F938F939F93AF93BF93EF93FE
:10227000FF93DF93CF93CDB7DEB72B97DEBFCDBFF4
:10228000809194019091950101969093950180938E
:1022900094018091F7018F5F8093F7012091FA01FB
:1022A0002B871A868B85893010F091E09A878B8571
:1022B0008F5F8093FA012A85222309F4ECC1809173
:1022C000CF01882F90E081709070882349F0809131
:1022D000D0019091D10101969093D1018093D001CA
:1022E0008091CF01882F90E082709070009749F024
:1022F0008091D2019091D30101969093D301809364
:10230000D2018091CF01882F90E084709070009767
:1023100049F08091D4019091D50101969093D50117
:102320008093D4018091CF01882F90E088709070C5
:10233000009749F08091D6019091D7010196909332
:10234000D7018093D6018091CF01882F90E08071D2
:102350009070009749F08091D8019091D901019631
:102360009093D9018093D8018091CF01882F90E07C
:1023700080729070009749F08091DA019091DB01B2
:1023800001969093DB018093DA018091CF01882F31
:1023900090E080749070009749F08091DC019091FA
:1023A000DD0101969093DD018093DC018091CF01E6
:1023B00088234CF48091DE019091DF010196909387
:1023C000DF018093DE018091EB0189871886998572
:1023D000993C10F021E0288789858F5F8093EB017D
:1023E00088858823E9F08091C9019091CA01909372
:1023F000FC018093FB018091F3019091F401909393
:10240000BA018093B9011092CA011092C9011092C9
:10241000F4011092F30181E08093B5011092EB0179
:102420008091B601833008F0A3C08091B60182305C
:1024300009F06BC080919F01882309F04BC0809107
:102440008401909185019F838E8328EC30E08E81FA
:102450009F81B9010E94CB1E1D82009711F491E06B
:102460009D838E819F810196909385018093840145
:102470002D81222309F47CC08091840190918501F3
:102480002FE0813A9207A8F0A7E3B0E0E7E3F0E09D
:1024900080818D7F8C93A8E3B0E0E8E3F0E0808159
:1024A0008D7F8C931092B601109285011092840159
:1024B0005FC0A7E3B0E0E7E3F0E0908182E0892726
:1024C0008C93A8E3B0E0E8E3F0E0908182E0892714
:1024D0008C934EC080919F018071882371F4A7E393
:1024E000B0E0E7E3F0E080818D7F8C93A8E3B0E07B
:1024F000E8E3F0E080818D7F8C931092850110924B
:10250000840181E08093B60133C080918401909171
:1025100085012EE2813E920710F18091B601813053
:10252000B1F41092B60180919F018071882391F4DB
:10253000A7E3B0E0E7E3F0E080818D7F8C93A8E330
:10254000B0E0E8E3F0E080818D7F8C9303C082E00F
:102550008093B601109285011092840109C0809188
:102560008401909185010196909385018093840167
:102570008091C3019091C4018330910548F480910A
:10258000C3019091C40101969093C4018093C3014B
:102590008091E301873328F48091E3018F5F80937A
:1025A000E3018091EE01843328F48091EE018F5F86
:1025B0008093EE018091E9018C831B829C81933092
:1025C00010F021E02B838C818F5F8093E9018B8158
:1025D000882309F45EC08091E401282F30E08091C7
:1025E000C7019091C80128173907D9F08091E401FB
:1025F000282F30E08091C7019091C8012817390732
:1026000034F48091E4018F5F8093E40105C08091F0
:10261000E40181508093E401EAE4F0E08091E40178
:10262000808380910602282F30E08091B70190913D
:10263000B80128173907D9F080910602282F30E019
:102640008091B7019091B8012817390734F480912F
:1026500006028F5F8093060205C0809106028150BA
:1026600080930602E8E4F0E0809106028083809186
:102670000602882321F48091E401882329F0EFE405
:10268000F0E082EA808303C0EFE4F0E01082109271
:10269000E9011092FA018091AB018870882309F05A
:1026A00077C080918001909181019A838983809184
:1026B00082018F5F80938201809182018631F0F0E8
:1026C00089819A8180709074009789F489819A81B8
:1026D00080709072009759F089819A8190930502D9
:1026E000809304028091AB0188608093AB0180915C
:1026F000AB018F7E8093AB011A821982E6E3F0E092
:102700009081809183018927882F90E08470907058
:102710000097C1F18091830180958093830180911E
:102720008201873038F48091AB018F7E8093AB01BA
:102730001A82198289819A81009721F08091820101
:102740008F3000F18091AB0180618093AB01898172
:102750009A8180709074009731F489819A81880FF2
:10276000991F9A83898380918301882F90E08470D8
:102770009070009729F489819A8181609A83898376
:102780001092820189819A819093810180938001C6
:102790002B96DEBFCDBFCF91DF91FF91EF91BF911F
:1027A000AF919F918F917F916F915F913F912F9109
:1027B0000F900FBE0F901F901895DF93CF930F923D
:1027C000CDB7DEB789831092F7019091F701898127
:1027D0009817D8F30F90CF91DF910895DF93CF939F
:1027E00000D00F92CDB7DEB79A83898303C08AE009
:1027F0000E94DD131B8289819A81009711F081E08C
:102800008B8389819A8101979A8389838B8188231D
:1028100071F70F900F900F90CF91DF910895DF9394
:10282000CF9300D00F92CDB7DEB79A83898301C0D2
:1028300000001B8289819A81009711F081E08B83CF
:1028400089819A8101979A8389838B81882381F773
:102850000F900F900F90CF91DF910895DF93CF935A
:10286000CDB7DEB7AAE3B0E0EAE3F0E080818061B3
:102870008C93ABE3B0E0EBE3F0E0808180618C937C
:10288000CF91DF910895DF93CF93CDB7DEB7ABE360
:10289000B0E0EBE3F0E080818F7E8C93AAE3B0E0C0
:1028A000EAE3F0E080818F7E8C93CF91DF910895F1
:1028B000DF93CF93CDB7DEB70E943C050E94980D01
:1028C0000E94C4040E94D406CF91DF910895DF9343
:1028D000CF930F92CDB7DEB7EBE3F0E01082E8E3E1
:1028E000F0E01082E5E3F0E01082E2E3F0E081E066
:1028F0008083EAE3F0E01082E7E3F0E088E580839C
:10290000E4E3F0E08CE88083E1E3F0E082EF8083B1
:10291000F894A8E3B0E0E8E3F0E080818F7D8C9349
:10292000A7E3B0E0E7E3F0E0808180628C938C91D4
:10293000A2E3B0E0E2E3F0E080818F778C930E9425
:102940005310E0E4F0E01082E9E2F0E08CE08083F4
:10295000EBE2F0E01082E0E4F0E086E88083EAE277
:10296000F0E088E98083E7E2F0E01082E6E2F0E060
:1029700086E18083E0E5F0E01082E5E5F0E085E0C7
:102980008083EBE5F0E080EE8083E4E5F0E0108208
:10299000E3E5F0E08AE08083ECE5F0E083E6808325
:1029A000EFE4F0E082EA8083EEE4F0E081E180830E
:1029B000E6E4F0E082ED90E091838083EAE4F0E0E9
:1029C0001082E8E4F0E0108280E060E00E94F70B03
:1029D000E5E4F0E089E08083E3E4F0E08EE68083E4
:1029E000E9E5F0E082E080838091AB018160809333
:1029F000AB0181E08093660078940F90CF91DF91D6
:102A00000895DF93CF930F92CDB7DEB78983F89403
:102A1000E2E2F0E089818083E3E2F0E08FEF8083FF
:102A2000E6E5F0E084E080837894E6E5F0E085EC8C
:102A300080830F90CF91DF9108951F920F920FB670
:102A40000F9211242F933F938F939F93AF93BF9334
:102A5000EF93FF93DF93CF9300D0CDB7DEB7E1E2E2
:102A6000F0E08081282F30E03A83298389819A81A0
:102A70008039910509F49CC029813A8121393105B9
:102A80009CF489819A818037910509F489C0298154
:102A90003A812038310509F45AC089819A818036FB
:102AA000910509F449C098C029813A81283A310535
:102AB000B9F089819A81893A91053CF429813A815A
:102AC000203A310509F47EC087C089819A81883B0C
:102AD000910561F029813A81203C3105F9F07CC0F3
:102AE00084E080938A0181E08093880180918A014B
:102AF000843079F4A3E2B0E020918B01822F90E042
:102B0000FC01E65EFD4F80818C93822F8F5F809366
:102B10008B01E6E5F0E085EC808362C010928A01CB
:102B200010928B011092880181E080938601E6E586
:102B3000F0E085EC808354C081E08093890182E0DD
:102B400080938A01E6E5F0E085EC808349C08091BE
:102B50008A01823069F4E3E2F0E0808180938B01A6
:102B600080918B018093870183E080938A0113C059
:102B700080918A01833079F430918B01832F90E02A
:102B8000E3E2F0E02081FC01E65FFD4F2083832F2C
:102B90008F5F80938B01E6E5F0E085EC808320C0B9
:102BA00081E080938A01E6E5F0E085EC808318C03F
:102BB000E3E2F0E0808180930902E6E5F0E085EC55
:102BC00080830EC085E080938A01E6E5F0E085EC25
:102BD00080831092890104C0E6E5F0E084E88083F8
:102BE0000F900F90CF91DF91FF91EF91BF91AF9137
:102BF0009F918F913F912F910F900FBE0F901F903B
:102C00001895DF93CF930F92CDB7DEB78983EBE2B0
:102C1000F0E08081882F90E0807290700097B9F387
:102C2000ECE2F0E0898180830F90CF91DF910895ED
:102C3000DF93CF9300D0CDB7DEB79A8389830BC0E3
:102C4000E981FA81208189819A8101969A83898319
:102C5000822F0E940116E981FA818081882381F701
:102C60000F900F90CF91DF910895DF93CF9300D015
:102C700000D000D0CDB7DEB79E838D8303C08C819A
:102C80000E9401168D819E819B838A838D819E8106
:102C900001969E838D83EA81FB818491898389815A
:102CA0008C838C81882359F726960FB6F894DEBF63
:102CB0000FBECDBFCF91DF910895DF93CF9300D0AA
:102CC00000D0CDB7DEB79A8389836B834C838C8128
:102CD000282F30E089819A81820F931F9A838983FC
:102CE0000EC0E981FA81208189819A8101969A83B7
:102CF0008983822F0E9401168B8181508B83E98109
:102D0000FA818081882319F08B81882351F70F90F5
:102D10000F900F900F90CF91DF910895DF93CF9395
:102D2000CDB7DEB764970FB6F894DEBF0FBECDBF48
:102D30009B8B8A8B6C8B8C89482F50E08A899B896E
:102D40009E012F5F3F4FB9010E94421FCE010196A5
:102D50000E94181664960FB6F894DEBF0FBECDBF62
:102D6000CF91DF910895DF93CF93CDB7DEB766970C
:102D70000FB6F894DEBF0FBECDBF9C8B8B8B6D8BD7
:102D80004E8B8D89482F50E08B899C899E012E5F48
:102D90003F4FB9010E94421FCE0102960E94381F88
:102DA000982F8E89891B8983898118167CF406C027
:102DB00089818150898380E30E94011689811816D8
:102DC000BCF3CE0102960E94181609C08981819534
:102DD000282FCE0102966E89422F0E945D166696BC
:102DE0000FB6F894DEBF0FBECDBFCF91DF9108952F
:102DF0001F920F920FB60F9211242F933F938F9330
:102E00009F93EF93FF93DF93CF93CDB7DEB780917E
:102E10008F0190918E01891B8032E8F490918D0191
:102E2000292F30E0ECE2F0E08081F901E55BFD4F15
:102E30008083892F8F5F80938D0180918F018F5FB9
:102E400080938F0180918D01813210F010928D015D
:102E500010924A0208C0ECE2F0E080818093900179
:102E600081E080934A02CF91DF91FF91EF919F9192
:102E70008F913F912F910F900FBE0F901F9018953B
:102E8000DF93CF930F92CDB7DEB710924A029091A5
:102E90008F0180918E019817C9F080918E018F5F0C
:102EA00080938E0180918C01813210F010928C0100
:102EB00020918C01822F90E0FC01E55BFD4F808129
:102EC0008983822F8F5F80938C0101C01982898151
:102ED0000F90CF91DF910895DF93CF9300D000D072
:102EE000CDB7DEB79B838A836C83198210924A0226
:102EF00023C080918E018F5F80938E018981282F5E
:102F000030E08A819B81DC01A20FB31F20918C01EC
:102F1000822F90E0FC01E55BFD4F80818C938981DD
:102F20008F5F8983822F8F5F80938C0180918C01CA
:102F3000813210F010928C0190918F0180918E015E
:102F4000981721F099818C81981798F289810F90B8
:102F50000F900F900F90CF91DF910895DF93CF9353
:102F6000CDB7DEB790918F0180918E01292F281B5C
:102F7000822FCF91DF910895DF93CF93CDB7DEB746
:102F8000AAE2B0E0EAE2F0E080818F778C93ECE295
:102F9000F0E080818093910110928C0110928D015C
:102FA00010928E0110928F0110924A02AAE2B0E0B4
:102FB000EAE2F0E0808180688C93CF91DF91089500
:102FC000EF92FF920F931F937B018C0120E030E082
:102FD00040E05FE40E945C1B88238CF0C801B701CD
:102FE00020E030E040E05FE40E9458190E94EA1BB4
:102FF0009B01AC01205030404040504806C0C80101
:10300000B7010E94EA1B9B01AC01B901CA011F91E3
:103010000F91FF90EF900895A0E0B0E0E2E1F8E1B9
:103020000C94011FDC012B01FA019C91923008F4F1
:1030300039C1EB018881823008F433C1943069F4DE
:10304000843009F02FC111969C91119789819817AE
:1030500009F428C1ABE6B0E025C1843009F421C1F0
:103060008230A9F4923009F01DC19A01AD0188E0C7
:10307000EA010990AE01E90109929E018150C1F770
:10308000E201898111969C918923818308C1923044
:1030900009F407C112962D903C901397EB018A8199
:1030A0009B811496AD90BD90CD90DC901797EC80ED
:1030B000FD800E811F819101281B390BB90137FF5B
:1030C00004C066277727621B730B603271050CF012
:1030D00061C0121613066CF537014801062E04C0B4
:1030E00096948794779467940A94D2F721E030E01D
:1030F00040E050E004C0220F331F441F551F6A9563
:10310000D2F721503040404050402E213F214023F3
:103110005123211531054105510521F021E030E011
:1031200040E050E079018A01E628F72808291929AA
:103130003CC0232BD1F1260E371E35014601062E49
:1031400004C096948794779467940A94D2F721E008
:1031500030E040E050E004C0220F331F441F551FF1
:103160006A95D2F721503040404050402A213B21FF
:103170004C215D21211531054105510521F021E04A
:1031800030E040E050E059016A01A628B728C8287D
:10319000D9280BC0821593052CF01C01AA24BB244E
:1031A000650103C0EE24FF24870111969C91D20192
:1031B00011968C91981709F445C0992339F0A8010C
:1031C00097012A193B094C095D0906C0A601950122
:1031D0002E193F09400B510B57FD08C01182338255
:1031E000228224833583468357831DC081E08183F7
:1031F0003382228288279927DC01821B930BA40B40
:10320000B50B84839583A683B7830DC0220F331F2C
:10321000441F551F248335834683578382819381BE
:103220000197938382832481358146815781DA0116
:10323000C9010197A109B1098F5F9F4FAF4FBF43EC
:1032400028F30BC0918333822282EA0CFB1C0C1DF5
:103250001D1DE482F5820683178383E08083248129
:1032600035814681578157FF1AC0C901AA2797FDAA
:10327000A095BA2F81709070A070B0705695479548
:1032800037952795822B932BA42BB52B848395837D
:10329000A683B78382819381019693838283DF0122
:1032A00001C0D201CD01CDB7DEB7E2E10C941D1F04
:1032B000A0E2B0E0EEE5F9E10C940D1F69837A839A
:1032C0008B839C832D833E834F835887E9E0EE2ECA
:1032D000F12CEC0EFD1ECE010196B7010E94DB1D04
:1032E0008E010F5E1F4FCE010596B8010E94DB1DB7
:1032F0008A8991E089278A8BC701B801AE01475EB0
:103300005F4F0E940C180E94061DA096E6E00C94E8
:10331000291FA0E2B0E0EFE8F9E10C940D1F6983EA
:103320007A838B839C832D833E834F835887F9E078
:10333000EF2EF12CEC0EFD1ECE010196B7010E947E
:10334000DB1D8E010F5E1F4FCE010596B8010E9456
:10335000DB1DC701B801AE01475E5F4F0E940C182C
:103360000E94061DA096E6E00C94291FA0E2B0E0A2
:10337000ECEBF9E10C94011F69837A838B839C83C6
:103380002D833E834F835887CE010196BE01675F30
:103390007F4F0E94DB1DCE010596BE016F5E7F4F01
:1033A0000E94DB1D9985923088F089898230C8F0AF
:1033B000943019F4823051F404C0843029F49230EE
:1033C00081F48BE690E0C6C0923049F420E09A8503
:1033D0008A89981321E02A87CE010996BBC08230E2
:1033E00049F420E09A858A89981321E02A8BCE013E
:1033F0004196B0C02D843E844F8458886D887E8865
:103400008F88988CEE24FF248701AA24BB246501B1
:1034100040E050E060E070E0E0E0F0E0C101817089
:103420009070892BE9F0E60CF71C081D191D9A0114
:10343000AB012A0D3B1D4C1D5D1D80E090E0A0E01E
:10344000B0E0E614F7040805190520F481E090E0E7
:10345000A0E0B0E0BA01A901480F591F6A1F7B1F05
:10346000AA0CBB1CCC1CDD1C97FE08C081E090E0C0
:10347000A0E0B0E0A82AB92ACA2ADB2A3196E032B5
:10348000F10549F0660C771C881C991C56944794EA
:1034900037942794C3CFFA85EA892B893C898B8599
:1034A0009C85280F391F2E5F3F4F17C0CA018170BE
:1034B0009070892B61F016950795F794E79480E05A
:1034C00090E0A0E0B0E8E82AF92A0A2B1B2B7695B9
:1034D0006795579547952F5F3F4F77FDE7CF0CC016
:1034E000440F551F661F771F17FD4160EE0CFF1C30
:1034F000001F111F21503040403090E0590790E0EC
:10350000690790E4790760F32B8F3C8FDB01CA01D8
:103510008F779070A070B07080349105A105B105CF
:1035200061F447FD0AC0E114F1040105110529F019
:10353000405C5F4F6F4F7F4F40781A8EFE1711F03F
:1035400081E08A8F4D8F5E8F6F8F78A383E0898FA4
:10355000CE0149960E94061DA096E2E10C941D1F23
:10356000A8E1B0E0E6EBFAE10C94091F69837A83E5
:103570008B839C832D833E834F835887B9E0EB2E4A
:10358000F12CEC0EFD1ECE010196B7010E94DB1D51
:103590008E010F5E1F4FCE010596B8010E94DB1D04
:1035A0002985223008F47EC03989323010F4B80100
:1035B0007CC08A859A8989278A87243011F0223035
:1035C00031F4231709F06EC06BE670E06EC0343042
:1035D00039F41D861E861F86188A1C861B8604C029
:1035E000323021F484E08987B7015FC02B853C85A8
:1035F0008B899C89281B390B3C872B87ED84FE84A3
:103600000F851889AD88BE88CF88D88CEA14FB0452
:103610000C051D0540F4EE0CFF1C001F111F21506E
:1036200030403C872B8720E030E040E050E080E0F5
:1036300090E0A0E0B0E460E070E0EA14FB040C0568
:103640001D0540F0282B392B4A2B5B2BEA18FB0871
:103650000C091D09B695A79597958795EE0CFF1C4B
:10366000001F111F6F5F7F4F6F31710531F7DA0156
:10367000C9018F779070A070B07080349105A1055A
:10368000B10561F427FD0AC0E114F104010511053B
:1036900029F0205C3F4F4F4F5F4F20782D873E87AA
:1036A0004F87588BBE01675F7F4FCB010E94061D7D
:1036B0006896EAE00C94251FA8E1B0E0E2E6FBE1A1
:1036C0000C940D1F69837A838B839C832D833E83A7
:1036D0004F83588789E0E82EF12CEC0EFD1ECE01B9
:1036E0000196B7010E94DB1D8E010F5E1F4FCE01B8
:1036F0000596B8010E94DB1D8985823040F08989DA
:10370000823028F0C701B8010E94531E01C08FEF1C
:103710006896E6E00C94291FA8E0B0E0E2E9FBE13E
:103720000C940A1F9B01AC0183E08983DA01C90173
:103730008827B7FD83959927AA27BB27B82E21157F
:1037400031054105510519F482E089833AC0882387
:10375000A9F0203080E0380780E0480780E858076B
:1037600029F460E070E080E09FEC30C0EE24FF249C
:103770008701E21AF30A040B150B02C079018A01D2
:103780008EE1C82ED12CDC82CB82ED82FE820F83AB
:103790001887C801B7010E94B71C019718161906AF
:1037A00084F4082E04C0EE0CFF1C001F111F0A94A5
:1037B000D2F7ED82FE820F831887C81AD90ADC82FD
:1037C000CB82BA82CE0101960E94061D2896E9E0BE
:1037D0000C94261FACE0B0E0E0EFFBE10C94111F6D
:1037E00069837A838B839C83CE010196BE016B5FD4
:1037F0007F4F0E94DB1D8D81823061F1823050F15C
:10380000843021F48E81882351F12EC02F81388598
:1038100037FD20C06E812F3131051CF06623F9F091
:1038200023C08EE190E0821B930B29853A854B855E
:103830005C8504C056954795379527958A95D2F7AC
:103840006623B1F050954095309521953F4F4F4FED
:103850005F4F0EC020E030E040E050E009C02FEFA5
:103860003FEF4FEF5FE704C020E030E040E050E87A
:10387000B901CA012C96E2E00C942D1FA8E0B0E03B
:10388000E4E4FCE10C94091F7B018C0161157105D6
:103890008105910519F482E0898360C083E0898302
:1038A0008EE1C82ED12CDC82CB82ED82FE820F838A
:1038B0001887C801B7010E94B71CFC013197F7FFB8
:1038C0003BC0222733272E1B3F0B57016801022ED6
:1038D00004C0D694C794B794A7940A94D2F740E052
:1038E00050E060E070E081E090E0A0E0B0E004C073
:1038F000880F991FAA1FBB1F2A95D2F70197A1090C
:10390000B1098E219F21A023B1230097A105B10504
:1039100021F041E050E060E070E04A295B296C2929
:103920007D294D835E836F8378878EE190E08E1BC7
:103930009F0B9C838B8312C0309781F00E2E04C0A6
:10394000EE0CFF1C001F111F0A94D2F7ED82FE82BD
:103950000F831887CE1ADF0ADC82CB821A82CE014F
:1039600001960E94061D2896EAE00C94251FEF920E
:10397000FF920F931F937B018C0180E0E81680E09B
:10398000F80681E0080780E0180788F48FEFE81652
:10399000F1040105110531F028F088E090E0A0E085
:1039A000B0E017C080E090E0A0E0B0E012C080E09E
:1039B000E81680E0F80680E0080781E0180728F0A4
:1039C00088E190E0A0E0B0E004C080E190E0A0E0F9
:1039D000B0E020E230E040E050E0281B390B4A0B19
:1039E0005B0B04C016950795F794E7948A95D2F778
:1039F000F701ED58FF4F8081281B3109410951091A
:103A0000C9011F910F91FF90EF900895DF92EF92FF
:103A1000FF920F931F93FC01E480F58006811781CC
:103A2000D1808081823048F480E090E0A0E1B0E075
:103A3000E82AF92A0A2B1B2BA5C0843009F49FC061
:103A4000823021F4EE24FF24870105C0E114F10443
:103A50000105110519F4E0E0F0E096C06281738180
:103A60009FEF623879070CF05BC022E83FEF261B1E
:103A7000370B2A3131052CF020E030E040E050E0F7
:103A80002AC0B801A701022E04C076956795579504
:103A900047950A94D2F781E090E0A0E0B0E004C03E
:103AA000880F991FAA1FBB1F2A95D2F70197A1095A
:103AB000B1098E219F21A023B1230097A105B10553
:103AC00021F081E090E0A0E0B0E09A01AB01282B6A
:103AD000392B4A2B5B2BDA01C9018F779070A070CC
:103AE000B07080349105A105B10539F427FF09C0F4
:103AF000205C3F4F4F4F5F4F04C0215C3F4F4F4F03
:103B00005F4FE0E0F0E02030A0E03A07A0E04A0795
:103B1000A0E45A0710F0E1E0F0E079018A0127C043
:103B20006038710564F5FB01E158FF4FD801C7010A
:103B30008F779070A070B07080349105A105B105A9
:103B400039F4E7FE0DC080E490E0A0E0B0E004C0EE
:103B50008FE390E0A0E0B0E0E80EF91E0A1F1B1F03
:103B600017FF05C016950795F794E794319687E0FF
:103B700016950795F794E7948A95D1F705C0EE243A
:103B8000FF248701EFEFF0E06E2F679566276795BA
:103B9000902F9F77D794DD24D7948E2F8695492F29
:103BA000462B582F5D29B701CA011F910F91FF9035
:103BB000EF90DF900895FC01DB014081518122816B
:103BC000622F6F7770E0221F2227221F9381892F97
:103BD000880F822B282F30E0991F9927991F119663
:103BE0009C93119721153105A9F5411551056105E2
:103BF000710511F482E037C082E89FEF13969C9321
:103C00008E9312979A01AB0167E0220F331F441F76
:103C1000551F6A95D1F783E08C930DC0220F331F97
:103C2000441F551F12968D919C91139701971396DF
:103C30009C938E931297203080E0380780E04807ED
:103C400080E4580758F314962D933D934D935C935D
:103C5000179708952F3F310579F4411551056105F6
:103C6000710519F484E08C93089564FF03C081E02A
:103C70008C9312C01C9210C02F57304013963C9367
:103C80002E93129783E08C9387E0440F551F661F95
:103C9000771F8A95D1F7706414964D935D936D9359
:103CA0007C93179708951F93DC01FB019C91923040
:103CB00008F447C08081823008F443C0943051F446
:103CC00011961C91843099F58181682F70E0611BF9
:103CD00071093FC0843021F0923031F48230B9F163
:103CE0008181882389F12DC011961C911197823012
:103CF000F1F081811817D9F412962D913C91139708
:103D0000828193818217930794F028173907BCF0BA
:103D100014968D919D910D90BC91A02D248135819B
:103D200046815781281739074A075B0718F4112382
:103D300041F00AC082179307A407B50740F4112386
:103D400019F061E070E005C06FEF7FEF02C060E046
:103D500070E0CB011F910895629FD001739FF00125
:103D6000829FE00DF11D649FE00DF11D929FF00D0B
:103D7000839FF00D749FF00D659FF00D9927729F42
:103D8000B00DE11DF91F639FB00DE11DF91FBD01CD
:103D9000CF0111240895AA1BBB1B51E107C0AA1F24
:103DA000BB1FA617B70710F0A61BB70B881F991FDC
:103DB0005A95A9F780959095BC01CD010895A1E28F
:103DC0001A2EAA1BBB1BFD010DC0AA1FBB1FEE1F95
:103DD000FF1FA217B307E407F50720F0A21BB30BE0
:103DE000E40BF50B661F771F881F991F1A9469F75C
:103DF00060957095809590959B01AC01BD01CF01B8
:103E000008952F923F924F925F926F927F928F927E
:103E10009F92AF92BF92CF92DF92EF92FF920F9359
:103E20001F93CF93DF93CDB7DEB7CA1BDB0B0FB663
:103E3000F894DEBF0FBECDBF09942A883988488820
:103E40005F846E847D848C849B84AA84B984C884B6
:103E5000DF80EE80FD800C811B81AA81B981CE0FAD
:103E6000D11D0FB6F894DEBF0FBECDBFED01089592
:103E7000E82FF92F01900020E9F7809590958E0F9B
:103E80009F1F0895E62FF72F2E2F3F2FE8944230E3
:103E9000C4F04532B4F44A3029F497FB1EF49095EF
:103EA00081959F4F642F772776DF805D8A330CF0F2
:103EB000895D8193862F972F0097A1F716F45DE215
:103EC00051931082822F932F00C0A82FB92FE82F73
:103ED000F92F672F71917723E1F7329704C07C9116
:103EE0006D9370836291AE17BF07C8F30895F8947D
:023EF000FFCF02
:103EF2003C00AB042D0601610D7F0D0000000000A7
:103F0200000000000102020303030304040404048A
:103F12000404040505050505050505050505050552
:103F22000505050606060606060606060606060632
:103F3200060606060606060606060606060606061F
:103F42000606060707070707070707070707070702
:103F520007070707070707070707070707070707EF
:103F620007070707070707070707070707070707DF
:103F720007070707070707070707070707070707CF
:103F820007070708080808080808080808080808B2
:103F9200080808080808080808080808080808089F
:103FA200080808080808080808080808080808088F
:103FB200080808080808080808080808080808087F
:103FC200080808080808080808080808080808086F
:103FD200080808080808080808080808080808085F
:103FE200080808080808080808080808080808084F
:103FF200080808080808080808080808080808083F
:0440020008080800A2
:00000001FF
