:100000000C9409010C947B060C94A1060C94B90D78
:100010000C94050D0C9426010C9426010C942601D9
:100020000C9426010C9426010C94C3110C94260107
:100030000C9426010C9492170C9426010C94260122
:100040000C9426010C9426010C9426010C94B715EF
:100050000C94260154686520526F626F74206E659F
:1000600065647320746F20626520726573657474B3
:100070006564206E6F772E0A0A00596F75206E65D1
:10008000656420746F20636865636B204D6F746FC7
:100090007220617373656D626C7920286F722079AC
:1000A0006F757220736F667477617265292E0A0A04
:1000B000000A0A28732E207461736B5F6D6F746F72
:1000C00072436F6E74726F6C28292066756E63744C
:1000D000696F6E20696E205250364C696221290A80
:1000E000000A0A232323204D4F544F52204F5645D8
:1000F0005243555252454E54202323230A00596F30
:1001000075206E65656420746F20636865636B207D
:10011000456E636F6465722F4D6F746F72206173EB
:1001200073656D626C7920286F7220796F7572200B
:10013000736F667477617265292E0A0A00210A0AB4
:1001400028732E207461736B5F6D6F746F72436FD1
:100150006E74726F6C28292066756E6374696F6E99
:1001600020696E205250364C696221290A0052499A
:10017000474854004C4546540041666665637465C3
:1001800064206368616E6E656C3A000A2323232045
:10019000454E434F44455220284F52204D4F544F17
:1001A0005229204D414C46554E4354494F4E212033
:1001B0002323230A00232323232320414C4C204FB5
:1001C0005045524154494F4E532053544F5050457F
:1001D0004420544F2050524556454E5420414E59CC
:1001E0002044414D414745212023232323230A0056
:1001F0000A0A232323232320454D455247454E43D6
:10020000592053485554444F574E2023232323232A
:100210000A0011241FBECFE5D8E0DEBFCDBF11E03C
:10022000A0E6B0E0E6E2F0E402C005900D92A4374B
:10023000B107D9F712E0A4E7B1E001C01D92AE36D4
:10024000B107E1F70E94D8030C9411200C94000030
:10025000DF93CF9300D0CDB7DEB780919B01909113
:100260009C019A83898389819A8182309105A9F1C1
:1002700089819A818330910550F489819A81009710
:1002800091F089819A818130910581F068C08981DE
:100290009A8183309105C1F189819A8184309105D9
:1002A00009F449C05CC00E94D00A59C08091A201E3
:1002B0009091A3012091600030916100B90140E06C
:1002C00050E00E94B40181E00E94D40482E090E0FA
:1002D00090939C0180939B0142C080919F019091DB
:1002E000A0012091600030916100B90141E050E02F
:1002F0000E94B40182E00E94D40483E090E09093D5
:100300009C0180939B012BC080919D0190919E0147
:100310002091600030916100B90140E050E00E94FE
:10032000B40184E00E94D40484E090E090939C01A6
:1003300080939B0114C08091990190919A01209122
:10034000600030916100B90141E050E00E94B401C9
:100350008AE00E94D40410929C0110929B010F909D
:100360000F90CF91DF9108950F931F93DF93CF9359
:1003700000D000D000D0CDB7DEB79A8389837C83CC
:100380006B835E834D832091FF0130910002898150
:100390009A812817390749F489819A812B813C81F8
:1003A0004D815E81B9010E941C0289819A812D8153
:1003B0003E81B9010E9414039C0189819A81280F12
:1003C000391F8091FF01909100022817390749F4E5
:1003D00089819A812B813C81B90142E050E00E94E1
:1003E0001C0289819A818C01000F111F89819A81D9
:1003F0002D813E81B9010E9414039801280F391FF5
:100400008091FF01909100022817390750F40E9453
:10041000D00A1092980110929701109293011092B5
:10042000920126960FB6F894DEBF0FBECDBFCF91D6
:10043000DF911F910F910895EF92FF920F931F93F9
:10044000DF93CF93CDB7DEB728970FB6F894DEBF12
:100450000FBECDBF9A8389837C836B835E834D837C
:100460008D819E8198878F838F81988581309105BA
:1004700009F466C08F8198858230910509F4BBC06C
:100480008F819885009709F0C2C08B819C819093E1
:100490009301809392018091920190919301AA27F8
:1004A00097FDA095BA2FBC01CD010E94261C7B01AF
:1004B0008C0189819A81CC01A0E0B0E0BC01CD0122
:1004C0000E94D81CDC01CB01BC01CD0120E030E052
:1004D0004EE452E40E94231ADC01CB019C01AD01E1
:1004E000C801B7010E944A1BDC01CB017C018D01D0
:1004F00089819A81CC01A0E0B0E0BC01CD010E94CD
:10050000D81CDC01CB01BC01CD0120E030E04EE481
:1005100052E40E94F219DC01CB019C01AD01C8013B
:10052000B7010E94501ADC01CB01BC01CD010E9431
:10053000841CDC01CB01909398018093970167C0E4
:100540008B819C8190939801809397018091970172
:1005500090919801AA2797FDA095BA2FBC01CD01D3
:100560000E94261C7B018C0189819A81CC01A0E02C
:10057000B0E0BC01CD010E94D81CDC01CB01BC0164
:10058000CD0120E030E04EE452E40E94231ADC0169
:10059000CB019C01AD01C801B7010E944A1BDC01DF
:1005A000CB017C018D0189819A81CC01A0E0B0E072
:1005B000BC01CD010E94D81CDC01CB01BC01CD01E6
:1005C00020E030E04EE452E40E94F219DC01CB015D
:1005D0009C01AD01C801B7010E94501ADC01CB019A
:1005E000BC01CD010E94841CDC01CB0190939301DE
:1005F000809392010CC08B819C8190939801809391
:1006000097018B819C81909393018093920128960E
:100610000FB6F894DEBF0FBECDBFCF91DF911F9113
:100620000F91FF90EF900895DF93CF93CDB7DEB792
:1006300028970FB6F894DEBF0FBECDBF9C838B8387
:100640007E836D831A8219828D819E8198878F8324
:100650008F819885009731F08F8198858130910541
:10066000E9F177C08B819C81CC01A0E0B0E0BC01B6
:10067000CD010E94D81CDC01CB01BC01CD0120E0E2
:1006800030E04EE452E40E94F219DC01CB01BC01DF
:10069000CD0127E836E149EC50E40E94501ADC0114
:1006A000CB01BC01CD0120E030E040E450E40E94E9
:1006B000501ADC01CB01BC01CD0120E030E040E864
:1006C00050E40E944A1BDC01CB01BC01CD010E9419
:1006D0007A18DC01CB019A8389833BC08B819C8192
:1006E000CC01A0E0B0E0BC01CD010E94D81CDC012F
:1006F000CB01BC01CD0120E030E04EE452E40E9489
:10070000231ADC01CB01BC01CD0127E836E149EC1D
:1007100050E40E94501ADC01CB01BC01CD0120E065
:1007200030E040E450E40E94501ADC01CB01BC01EF
:10073000CD0120E030E040E850E40E944A1BDC019B
:10074000CB01BC01CD010E947A18DC01CB019A8358
:10075000898389819A8128960FB6F894DEBF0FBEEF
:10076000CDBFCF91DF910895DF93CF9300D0CDB768
:10077000DEB789836A838981893C10F088EC89839C
:100780008A81893C10F088EC8A838981882F90E0E7
:100790009093AA018093A9018A81882F90E0909379
:1007A000A8018093A7010F900F90CF91DF9108953A
:1007B000DF93CF93CDB7DEB780E590E090936100F3
:1007C0008093600080E991E09093A3018093A2015F
:1007D00084EF91E09093A00180939F0188E592E0DF
:1007E00090939E0180939D018CEB92E090939A01EF
:1007F00080939901109200021092FF011092F20171
:100800001092F10180E590E0909398018093970118
:1008100080E590E090939301809392010E940115EE
:100820008CED95E00E9488140E94871181E090E091
:1008300090939C0180939B010E9428010E946E0767
:100840000E94F214F9CFDF93CF93CDB7DEB780913A
:10085000B801843010F01092B801CF91DF91089563
:10086000DF93CF93CDB7DEB784E08093B801CF910B
:10087000DF910895DF93CF9300D0CDB7DEB7A7E324
:10088000B0E0E7E3F0E080818C778C93A8E3B0E000
:10089000E8E3F0E080818C778C938091A1018870EF
:1008A000882371F0A7E3B0E0E7E3F0E0808180689F
:1008B0008C93A8E3B0E0E8E3F0E0808180688C935B
:1008C0008091A1018071882371F0A7E3B0E0E7E394
:1008D000F0E0808182608C93A8E3B0E0E8E3F0E090
:1008E000808182608C938091A1018072882371F055
:1008F000A7E3B0E0E7E3F0E0808181608C93A8E3B8
:10090000B0E0E8E3F0E0808181608C93A4E3B0E0A4
:10091000E4E3F0E080818F788C93A5E3B0E0E5E339
:10092000F0E080818F788C93A4E3B0E0E4E3F0E022
:100930008081282F8091A101882F90E08295929547
:10094000907F9827807F98278077822B8C93A5E3D0
:10095000B0E0E5E3F0E08081282F8091A101882FAD
:1009600090E082959295907F9827807F9827807756
:10097000822B8C938091B801882359F48091A10136
:100980008A838A81882311F081E08A838A8189831E
:1009900003C08091B801898389818093B8010F9049
:1009A0000F90CF91DF910895DF93CF930F92CDB742
:1009B000DEB7898389818093A1010E943A040F9058
:1009C000CF91DF910895DF93CF930F92CDB7DEB72C
:1009D000A8E3B0E0E8E3F0E080818E7F8C93A7E3AA
:1009E000B0E0E7E3F0E080818E7F8C930000E6E3E7
:1009F000F0E08081817089838091A10180728823D9
:100A000071F0A7E3B0E0E7E3F0E0808181608C93D0
:100A1000A8E3B0E0E8E3F0E0808181608C93898115
:100A20000F90CF91DF910895DF93CF930F92CDB7C1
:100A3000DEB7A5E3B0E0E5E3F0E080818F7B8C9347
:100A4000A4E3B0E0E4E3F0E080818F7B8C930000CE
:100A5000E3E3F0E08081807489838091A101847058
:100A6000882371F0A4E3B0E0E4E3F0E080818064E7
:100A70008C93A5E3B0E0E5E3F0E0808180648C93A3
:100A800089810F90CF91DF910895DF93CF93CDB7F8
:100A9000DEB7CF91DF910895DF93CF9300D0CDB72C
:100AA000DEB79A83898389819A81909363008093CA
:100AB00062000F900F90CF91DF910895DF93CF9355
:100AC00000D0CDB7DEB78091F0018333E8F00E940B
:100AD000E3048A830E94140589839091A4018A818A
:100AE000981729F4909101028981981759F08A8109
:100AF0008093A401898180930102E0916200F091CA
:100B0000630009951092F0010F900F90CF91DF9143
:100B10000895DF93CF9300D00F92CDB7DEB78983CE
:100B2000E6E2F0E08081882F90E08074907000977A
:100B300019F01B821A821FC0E7E2F0E0898180640D
:100B40008083E6E2F0E086ED8083E6E2F0E08081FB
:100B5000882F90E0807490700097B9F7A6E2B0E01B
:100B6000E6E2F0E0808180618C93E4E2F0E0808155
:100B700091819B838A838A819B810F900F900F9034
:100B8000CF91DF910895DF93CF930F92CDB7DEB76A
:100B90008983E7E2F0E0898180648083E6E2F0E027
:100BA00086ED80830F90CF91DF910895DF93CF93EF
:100BB00000D0CDB7DEB7E6E2F0E08081882F90E08C
:100BC00080749070009709F091C080917901282F6E
:100BD00030E03A83298389819A818330910509F431
:100BE0004AC029813A81243031057CF489819A8177
:100BF0008130910541F129813A81223031057CF51E
:100C000089819A81009799F065C029813A812530C0
:100C1000310509F448C089819A8185309105BCF17C
:100C200029813A812630310509F449C053C0E4E2F4
:100C3000F0E080819181909305028093040286E028
:100C40000E94C30547C0E4E2F0E080819181909367
:100C50000A028093090285E00E94C3053BC0E4E2DA
:100C6000F0E0808191819093FB018093FA0183E011
:100C70000E94C3052FC0E4E2F0E08081918190934F
:100C8000C4018093C30182E00E94C30523C0E4E253
:100C9000F0E0808191819093EA018093E90180E006
:100CA0000E94C30517C0E4E2F0E080819181909337
:100CB000F8018093F70181E00E94C3050BC0E4E2D4
:100CC000F0E0808191819093C2018093C10187E01F
:100CD0000E94C30580917901863019F41092790140
:100CE00005C0809179018F5F809379010F900F90FB
:100CF000CF91DF9108951F920F920FB60F9211249A
:100D00008F939F93DF93CF93CDB7DEB78091FF0191
:100D1000909100020196909300028093FF018091D0
:100D2000F5019091F60101969093F6018093F501FB
:100D3000CF91DF919F918F910F900FBE0F901F90D9
:100D400018951F920F920FB60F9211248F939F93B5
:100D5000DF93CF93CDB7DEB78091F1019091F2018F
:100D600001969093F2018093F1018091CB019091D3
:100D7000CC0101969093CC018093CB01CF91DF9170
:100D80009F918F910F900FBE0F901F901895DF933A
:100D9000CF93CDB7DEB7CF91DF910895DF93CF9397
:100DA00000D0CDB7DEB79A83898389819A819093E9
:100DB0006500809364000F900F90CF91DF910895AC
:100DC000DF93CF9300D0CDB7DEB78A83F894A2E348
:100DD000B0E0E2E3F0E080818F778C930E94ED1029
:100DE0001092BA011092B9011092CA011092C90171
:100DF0001092B4011092B3011092EF011092EE0123
:100E0000109208021092E601EAE4F0E01082E8E4B1
:100E1000F0E01082EFE4F0E010820E949C1180EF7D
:100E200091E00E94CF1685EB91E00E94CF168A8157
:100E3000813019F08A818230E9F48BE891E00E94D8
:100E4000CF1689E791E00E94CF168A81813029F47C
:100E500084E791E00E94CF1604C08EE691E00E94E4
:100E6000CF168DE391E00E94CF168EEF90E00E94A6
:100E7000CF160FC08A81833061F481EE90E00E942A
:100E8000CF1681EB90E00E94CF168AE790E00E9497
:100E9000CF1684E590E00E94CF1686E30E94D4042A
:100EA0008AE0898307C080E090E80E94A9148981C4
:100EB0008150898389818823B1F780E00E94D4041E
:100EC0008AE0898307C08FEF9FEF0E94A914898170
:100ED0008150898389818823B1F7DFCFDF93CF9356
:100EE000CDB7DEB728970FB6F894DEBF0FBECDBFE3
:100EF0008091E501823308F47EC01092E501809173
:100F0000E201882309F043C08091090290910A020E
:100F100023E08330920740F48091FA019091FB0125
:100F200043E083309407F0F08091E4018F5F809379
:100F3000E4018AE08093E2011092BA011092B901B3
:100F40001092CA011092C9011092B4011092B3011B
:100F50001092EF011092EE018091960184608093CF
:100F6000960159C2809196018B7F80939601809162
:100F7000AF01853628F01092E4011092AF0107C04E
:100F80008091E401833018F083E00E94E0068091B4
:100F9000090290910A028639910598F48091BB016B
:100FA0009091BC01009769F48091A9019091AA01E8
:100FB000009739F080910802873918F081E00E948B
:100FC000E0068091FA019091FB018639910598F431
:100FD0008091FD019091FE01009769F48091A70135
:100FE0009091A801009739F08091E601873918F0B7
:100FF00082E00E94E0068091B701882309F4FCC1D9
:101000008091E201882309F0F0C18091E4018823F6
:1010100031F08091AF018F5F8093AF0102C01092D9
:10102000AF01809196018270882309F43FC020911E
:10103000FF01309100028091A5019091A60128172F
:10104000390790F01092AA011092A9011092B401F0
:101050001092B3011092BA011092B90180919601D9
:101060008D7F8093960122C02091FF013091000274
:101070008091BD019091BE0128173907B8F0809189
:10108000A9019091AA01969587959093AA018093C2
:10109000A9018091A9019091AA018631910530F4AE
:1010A00086E190E09093AA018093A9018091960136
:1010B0008170882309F43FC02091F1013091F20141
:1010C0008091C7019091C8012817390790F01092BC
:1010D000A8011092A7011092EF011092EE01109258
:1010E000CA011092C901809196018E7F809396016A
:1010F00022C02091F1013091F2018091F301909191
:10110000F40128173907B8F08091A7019091A80140
:10111000969587959093A8018093A7018091A70148
:101120009091A8018631910530F486E190E090938A
:10113000A8018093A701909174018091760198177E
:1011400039F49091750180917701981709F464C082
:101150008091A9019091AA01009731F48091A70193
:101160009091A801009741F18091A9019091AA0165
:101170009093AC018093AB018091A7019091A8015D
:101180009093C0018093BF011092AA011092A9010F
:101190001092A8011092A7011092CA011092C901E1
:1011A0001092BA011092B9011092B4011092B301D9
:1011B0001092EF011092EE01EFE4F0E080818823BD
:1011C00059F58091740190917501692F0E94910CDD
:1011D0008091AB019091AC019093AA018093A901F9
:1011E0008091BF019091C0019093A8018093A701C5
:1011F0008091A9019091AA01969587959093B40149
:101200008093B3018091A7019091A801969587954D
:101210009093EF018093EE012091A9013091AA01F2
:101220008091BB019091BC01A901481B590BCA01D7
:101230009C838B832091B3013091B4018B819C817D
:10124000820F931F9093B4018093B3018091B301F7
:101250009091B40151E0853A950734F084EA91E029
:101260009093B4018093B3018091B3019091B40144
:101270002EEF8C35920734F48CE59EEF9093B401F9
:101280008093B3018091BB019091BC01009751F410
:101290008091A9019091AA01009721F41092B401C4
:1012A0001092B3018091B3019091B4019E838D831C
:1012B0004D815E8155232CF48D819E8101969E8304
:1012C0008D838D819E81959587959093BA018093AA
:1012D000B9018091B9019091BA01833D910534F033
:1012E00082ED90E09093BA018093B9018091B901A9
:1012F0009091BA01992324F41092BA011092B90185
:101300002091A7013091A8018091FD019091FE01EB
:10131000A901481B590BCA019A8389832091EE01C8
:101320003091EF0189819A81820F931F9093EF0191
:101330008093EE018091EE019091EF0151E0853AAA
:10134000950734F084EA91E09093EF018093EE01E9
:101350008091EE019091EF012EEF8C35920734F4DD
:101360008CE59EEF9093EF018093EE018091FD015B
:101370009091FE01009751F48091A7019091A801EE
:10138000009721F41092EF011092EE018091EE018E
:101390009091EF0198878F834F81588555232CF4C6
:1013A0008F819885019698878F838F8198859595F1
:1013B00087959093CA018093C9018091C90190914A
:1013C000CA01833D910534F082ED90E09093CA010B
:1013D0008093C9018091C9019091CA01992354F465
:1013E0001092CA011092C90105C08091E20181509A
:1013F0008093E2011092B7019091960180910302CF
:10140000981749F08091960180930302E09164005F
:10141000F0916500099528960FB6F894DEBF0FBECF
:10142000CDBFCF91DF910895DF93CF9300D0CDB79B
:10143000DEB789836A838981893C10F088EC8983CF
:101440008A81893C10F088EC8A838981882F90E01A
:101450009093AA018093A9018A81882F90E09093AC
:10146000A8018093A7010F900F90CF91DF9108956D
:10147000DF93CF9300D000D00F92CDB7DEB7898332
:101480008981809378018981813019F08981823046
:1014900029F481E090E09D838C8302C01D821C8230
:1014A0008C81809374018981813019F08981833026
:1014B00029F481E090E09B838A8302C01B821A8218
:1014C0008A81809375010F900F900F900F900F906D
:1014D000CF91DF910895DF93CF93CDB7DEB72A97F1
:1014E0000FB6F894DEBF0FBECDBF9C838B837E8387
:1014F0006D831A868B819C81992314F481E08A87FD
:101500008A858093740119868D819E81992314F4B4
:1015100081E089878985809375018B819C8118166C
:1015200019061CF48B81888703C08B81819588877D
:1015300088858A838B819C81181619061CF48D81FD
:101540008F8303C08D8181958F838F8189838A8169
:1015500069810E94140A2A960FB6F894DEBF0FBE66
:10156000CDBFCF91DF910895DF93CF9300D0CDB75A
:10157000DEB7809196018170882351F480919601A5
:101580008270882329F481E090E09A83898302C0E5
:101590001A82198289810F900F90CF91DF9108955F
:1015A000DF93CF93CDB7DEB71092AA011092A901B5
:1015B0001092A8011092A7011092B4011092B301E9
:1015C0001092EF011092EE01809196018E7F809330
:1015D0009601809196018D7F80939601809196016E
:1015E00080930302E0916400F09165000995CF912A
:1015F000DF910895DF93CF9300D000D00F92CDB745
:10160000DEB789836A835C834B832D838091960147
:10161000816080939601809196018260809396010B
:101620001092F4011092F3011092BE011092BD01CC
:1016300089818731D0F08981282F30E086EF9FEFB4
:10164000821B930B880F991F9C018B819C81820FB9
:10165000931F9093F4018093F3018091F301909193
:10166000F4019093BE018093BD018B819C81029710
:101670009093C8018093C7018091C7019091C801E0
:101680009093A6018093A5018B819C81883291055E
:1016900000F588E290E09C838B8384E190E0909356
:1016A000C8018093C7018091C7019091C8019093B0
:1016B000A6018093A5018AE090E09093F4018093C5
:1016C000F3018091F3019091F4019093BE01809316
:1016D000BD018B819C8121E080399207E0F48981F2
:1016E0008932C8F088E289838B819C819C01369580
:1016F0002795369527958B819C81821B930B909320
:10170000F4018093F3018091F3019091F40190939F
:10171000BE018093BD01109200021092FF01109251
:10172000F2011092F101898169810E94140A8A8173
:101730000E94380A8B819C819093D0018093CF01C5
:101740008B819C819093B1018093B001809196012F
:10175000809303028091960180930302E0916400DC
:10176000F091650009958D81882339F002C00E94AF
:10177000F2140E94B40A8823D1F30F900F900F90B7
:101780000F900F90CF91DF910895DF93CF93CDB756
:10179000DEB727970FB6F894DEBF0FBECDBF8B83A1
:1017A0006C835E834D832F8380919601816080934B
:1017B0009601809196018260809396018D819E8131
:1017C000CC01A0E0B0E020EB32E040E050E0BC0112
:1017D000CD010E94461FDC01CB0124E630E040E051
:1017E00050E0BC01CD010E94791FDA01C9019A8342
:1017F000898389819A81845690409093F4018093E3
:10180000F30189819A81845690409093BE01809320
:10181000BD0189819A819093C8018093C701898114
:101820009A819093A6018093A50189819A8188323B
:101830009105E0F488E290E09A83898384E190E066
:101840009093C8018093C70184E190E09093A60132
:101850008093A5018AE090E09093F4018093F301D6
:101860008AE090E09093BE018093BD018B816B81F3
:101870000E94140A8C810E94380A10920002109271
:10188000FF011092F2011092F10189819A819093E7
:10189000D0018093CF0189819A819093B101809387
:1018A000B0018091960180930302E0916400F09171
:1018B000650009958F81882339F002C00E94F214D7
:1018C0000E94B40A8823D1F327960FB6F894DEBF9E
:1018D0000FBECDBFCF91DF910895DF93CF9300D09E
:1018E000CDB7DEB789836A838981833D10F082EDAD
:1018F00089838A81833D10F082ED8A838A81882FD3
:1019000090E09093CA018093C9018981882F90E06B
:101910009093BA018093B9010F900F90CF91DF910E
:101920000895DF93CF9300D0CDB7DEB789836A8364
:101930008981809376018A81809377018981809360
:1019400074018A81809375018981882341F0A5E320
:10195000B0E0E5E3F0E0808184608C9307C0A5E30C
:10196000B0E0E5E3F0E080818B7F8C938A8188236F
:1019700041F0A5E3B0E0E5E3F0E0808188608C937E
:1019800007C0A5E3B0E0E5E3F0E08081877F8C93BA
:101990000F900F90CF91DF910895DF93CF9300D0F8
:1019A000CDB7DEB789836A8307C0A9E5B0E0E9E572
:1019B000F0E0808180688C938091AE018823A9F744
:1019C0008981882F90E08F7390709C010024369558
:1019D00027950794369527950794322F202D8A81D5
:1019E000882F90E08F739070822B932B906390934D
:1019F000CE018093CD018091AD0180648093AD01D3
:101A00000F900F90CF91DF9108951F920F920FB614
:101A10000F9211248F939F93AF93BF93EF93FF93F4
:101A2000DF93CF93CDB7DEB780916600823008F0A8
:101A300065C080917A018823D9F180917A018C3335
:101A4000C8F48091E7019091E8018070907400974C
:101A500049F0A2E3B0E0E2E3F0E0908180E889277A
:101A60008C9320C0A2E3B0E0E2E3F0E080818F77C6
:101A70008C9318C08091E7019091E8018070907478
:101A8000009741F0A2E3B0E0E2E3F0E080818F77DD
:101A90008C9308C0A2E3B0E0E2E3F0E0908180E83C
:101AA00089278C9380917A01815080937A0154C068
:101AB0008091AE018823D1F0A2E3B0E0E2E3F0E050
:101AC00080818F778C938091E7019091E801880F56
:101AD000991F9093E8018093E70188E780937A014A
:101AE0008091AE0181508093AE0136C0A2E3B0E098
:101AF000E2E3F0E080818F778C932EC08091B20179
:101B00008823E1F08091AD018170882349F4A8E336
:101B1000B0E0E8E3F0E0908180E489278C9308C08E
:101B2000A5E3B0E0E5E3F0E0908180E889278C93BD
:101B30008091B20181508093B2010EC0A8E3B0E061
:101B4000E8E3F0E0808180648C93A5E3B0E0E5E316
:101B5000F0E0808180688C93CF91DF91FF91EF91CD
:101B6000BF91AF919F918F910F900FBE0F901F90DB
:101B700018951F920F920FB60F9211248F939F9377
:101B8000EF93FF93DF93CF930F92CDB7DEB78091A2
:101B90006600833021F0809166008630C1F4809128
:101BA000AD018071882399F48091AD018072882302
:101BB00071F0E6E3F0E08081882F90E0847090700F
:101BC000009729F4809102028F5F80930202E6E37E
:101BD000F0E080818091AD018D7F8093AD010F9009
:101BE000CF91DF91FF91EF919F918F910F900FBE59
:101BF0000F901F901895DF93CF9300D0CDB7DEB72D
:101C00009A8389830F900F90CF91DF910895DF938E
:101C1000CF9300D0CDB7DEB79A83898389819A812B
:101C200090936800809367000F900F90CF91DF91A1
:101C30000895DF93CF93CDB7DEB7CF91DF910895AD
:101C4000DF93CF9300D0CDB7DEB79A8389838981A4
:101C50009A8190936A00809369000F900F90CF91C2
:101C6000DF910895DF93CF93CDB7DEB72E970FB6F0
:101C7000F894DEBF0FBECDBF8091C5019091C60123
:101C80008230910508F44DC28091AD0180718823A6
:101C900009F024C280916600282F30E03E872D870E
:101CA0008D859E858230910509F4B9C02D853E85CC
:101CB0002330310554F48D859E850097C9F02D851C
:101CC0003E852130310589F10FC28D859E85853095
:101CD000910509F454C12D853E852630310509F45E
:101CE00083C18D859E858330910509F4CDC0FCC1EB
:101CF000A9E5B0E0E9E5F0E080818F778C93A2E37D
:101D0000B0E0E2E3F0E080818F778C93A8E3B0E06D
:101D1000E8E3F0E0808180648C93A5E3B0E0E5E344
:101D2000F0E0808180688C93DFC18091AE018823D0
:101D300009F04DC08091AD0180748823C1F080917D
:101D4000CD019091CE019093E8018093E7018EE060
:101D50008093AE018091AD018F7B8093AD01A9E5A9
:101D6000B0E0E9E5F0E0808180688C931CC0A9E5D3
:101D7000B0E0E9E5F0E080818F778C93A2E3B0E0FA
:101D8000E2E3F0E080818F778C93A8E3B0E0E8E3B2
:101D9000F0E0808180648C93A5E3B0E0E5E3F0E0BF
:101DA000808180688C9390917F019C871B862C8515
:101DB000243110F031E03B878C858F5F80937F0169
:101DC0008B85882359F082E08093660007C0A9E5DF
:101DD000B0E0E9E5F0E0808180688C938091AD010E
:101DE0008870882309F480C1E0916700F091680051
:101DF00080910602909107020995809106029091C8
:101E000007029093B6018093B501109207021092D9
:101E100006028091AD01877F8093AD0165C1A9E580
:101E2000B0E0E9E5F0E080818F778C93A2E3B0E049
:101E3000E2E3F0E080818F778C93A8E3B0E0E8E301
:101E4000F0E0808180648C93A5E3B0E0E5E3F0E00E
:101E5000808180688C931092B201109202021092DD
:101E60007E0110927D018091AD018E7F8093AD0146
:101E70008091AD0180628093AD0183E080937F010A
:101E800083E08093660030C18091B2018823E1F441
:101E900090917F019A8719862A85233010F031E0CE
:101EA00039878A858F5F80937F018985882361F0D8
:101EB000A9E5B0E0E9E5F0E0808180688C9388E2F4
:101EC0008093B20110927F018091E301882369F031
:101ED00080910202823048F01092020281E08093E9
:101EE000E30185E080936600FFC0809102028630A6
:101EF00048F01092020281E08093E30185E0809334
:101F00006600F2C020917D0130917E0138872F83D9
:101F10001E828F8198858E30910510F091E09E830E
:101F20008F819885019690937E0180937D012E810B
:101F3000222309F4D9C01092E30185E08093660062
:101F4000A9E5B0E0E9E5F0E080818F778C93A2E32A
:101F5000B0E0E2E3F0E080818F778C93A8E3B0E01B
:101F6000E8E3F0E0808180648C93A5E3B0E0E5E3F2
:101F7000F0E0808180688C931092B201B5C0A9E531
:101F8000B0E0E9E5F0E080818F778C93A2E3B0E0E8
:101F9000E2E3F0E080818F778C93A8E3B0E0E8E3A0
:101FA000F0E0808180648C93A5E3B0E0E5E3F0E0AD
:101FB000808180688C931092B2011092020210927C
:101FC0007E0110927D018091AD0181608093AD0111
:101FD0008091AD0180628093AD0183E080937F01A9
:101FE00086E08093660080C08091B2018823E1F48E
:101FF00030917F013D831C828D81833010F091E010
:102000009C838D818F5F80937F012C81222361F0DF
:10201000A9E5B0E0E9E5F0E0808180688C9388E292
:102020008093B20110927F018091EC01882369F0C6
:1020300080910202823048F01092020281E0809387
:10204000EC0181E0809366004FC0809102028630EF
:1020500048F01092020281E08093EC0181E08093CD
:10206000660042C080917D0190917E019B838A83AE
:1020700019822A813B812E30310510F031E03983FD
:102080008A819B81019690937E0180937D01898155
:10209000882351F11092EC0181E080936600A9E55C
:1020A000B0E0E9E5F0E080818F778C93A2E3B0E0C7
:1020B000E2E3F0E080818F778C93A8E3B0E0E8E37F
:1020C000F0E0808180648C93A5E3B0E0E5E3F0E08C
:1020D000808180688C931092B20106C010927E01BC
:1020E00010927D0110927F0190917C018091E3011B
:1020F000981731F490917B018091EC01981769F069
:102100008091E30180937C018091EC0180937B01BD
:10211000E0916900F0916A0009951092C601109251
:10212000C5012E960FB6F894DEBF0FBECDBFCF917E
:10213000DF910895DF93CF93CDB7DEB7109266009D
:10214000A9E5B0E0E9E5F0E080818F778C93A2E328
:10215000B0E0E2E3F0E080818F778C93A8E3B0E019
:10216000E8E3F0E0808180648C93A5E3B0E0E5E3F0
:10217000F0E0808180688C931092EC011092E30172
:10218000CF91DF910895DF93CF93CDB7DEB7A9E567
:10219000B0E0E9E5F0E080818F778C93A2E3B0E0D6
:1021A000E2E3F0E080818F778C93A8E3B0E0E8E38E
:1021B000F0E0808180648C93A5E3B0E0E5E3F0E09B
:1021C000808180688C931092EC011092E30181E091
:1021D00080936600CF91DF910895DF93CF93CDB7C1
:1021E000DEB7A1E3B0E0E1E3F0E080818F7B8C9388
:1021F000A2E3B0E0E2E3F0E080818F7B8C93A7E381
:10220000B0E0E7E3F0E08081877F8C93A8E3B0E063
:10221000E8E3F0E08081877F8C93A8E3B0E0E8E317
:10222000F0E080818F7B8C93A5E3B0E0E5E3F0E004
:1022300080818F778C93CF91DF910895DF93CF9337
:10224000CDB7DEB7A1E3B0E0E1E3F0E080818064E8
:102250008C93A2E3B0E0E2E3F0E0808180648C93B1
:10226000A7E3B0E0E7E3F0E08081877F8C93A8E309
:10227000B0E0E8E3F0E08081877F8C93CF91DF913D
:102280000895DF93CF93CDB7DEB7A1E3B0E0E1E3EC
:10229000F0E080818F7B8C93A2E3B0E0E2E3F0E09A
:1022A00080818F7B8C93A7E3B0E0E7E3F0E080814F
:1022B00088608C93A8E3B0E0E8E3F0E08081886078
:1022C0008C93CF91DF910895DF93CF93CDB7DEB795
:1022D000A1E3B0E0E1E3F0E0808180648C93A2E3CD
:1022E000B0E0E2E3F0E0808180648C93A7E3B0E0AB
:1022F000E7E3F0E0808188608C93A8E3B0E0E8E356
:10230000F0E0808188608C93CF91DF910895DF9316
:10231000CF93CDB7DEB7A8E3B0E0E8E3F0E080818B
:1023200080618C938091B801843018F483E08093AD
:10233000B801CF91DF910895DF93CF9300D0CDB74F
:10234000DEB7A8E3B0E0E8E3F0E080818F7E8C9315
:102350008091B801843090F48091B801882321F4F1
:102360008091A101882329F081E090E09A838983FC
:1023700002C01A82198289818093B8010F900F9050
:10238000CF91DF9108951F920F920FB60F921124F3
:102390002F933F935F936F937F938F939F93AF930D
:1023A000BF93EF93FF93DF93CF93CDB7DEB72B9718
:1023B000DEBFCDBF809194019091950101969093DD
:1023C0009501809394018091F9018F5F8093F901C9
:1023D0002091FC012B871A868B85893010F091E0C3
:1023E0009A878B858F5F8093FC012A85222309F4CD
:1023F000ECC18091D101882F90E08170907088238A
:1024000049F08091D2019091D30101969093D3012C
:102410008093D2018091D101882F90E082709070DA
:10242000009749F08091D4019091D5010196909345
:10243000D5018093D4018091D101882F90E08470E0
:102440009070009749F08091D6019091D701019644
:102450009093D7018093D6018091D101882F90E08D
:1024600088709070009749F08091D8019091D901BF
:1024700001969093D9018093D8018091D101882F42
:1024800090E080719070009749F08091DA0190910E
:10249000DB0101969093DB018093DA018091D101F9
:1024A000882F90E080729070009749F08091DC0155
:1024B0009091DD0101969093DD018093DC01809184
:1024C000D101882F90E080749070009749F080913E
:1024D000DE019091DF0101969093DF018093DE0190
:1024E0008091D10188234CF48091E0019091E10129
:1024F00001969093E1018093E0018091ED0189873D
:1025000018869985993C10F021E0288789858F5F8E
:102510008093ED0188858823E9F08091CB0190912B
:10252000CC019093FE018093FD018091F501909183
:10253000F6019093BC018093BB011092CC011092E4
:10254000CB011092F6011092F50181E08093B70162
:102550001092ED018091B801833008F0A3C0809102
:10256000B801823009F06BC08091A101882309F085
:102570004BC080918401909185019F838E8328ECCC
:1025800030E08E819F81B9010E94651F1D820097F6
:1025900011F491E09D838E819F8101969093850136
:1025A000809384012D81222309F47CC080918401D1
:1025B000909185012FE0813A9207A8F0A7E3B0E05F
:1025C000E7E3F0E080818D7F8C93A8E3B0E0E8E35F
:1025D000F0E080818D7F8C931092B801109285017C
:1025E000109284015FC0A7E3B0E0E7E3F0E09081E0
:1025F00082E089278C93A8E3B0E0E8E3F0E09081E3
:1026000082E089278C934EC08091A101807188233C
:1026100071F4A7E3B0E0E7E3F0E080818D7F8C9375
:10262000A8E3B0E0E8E3F0E080818D7F8C93109226
:1026300085011092840181E08093B80133C08091BC
:102640008401909185012EE2813E920710F18091E4
:10265000B8018130B1F41092B8018091A10180716C
:10266000882391F4A7E3B0E0E7E3F0E080818D7F79
:102670008C93A8E3B0E0E8E3F0E080818D7F8C9359
:1026800003C082E08093B80110928501109284010A
:1026900009C08091840190918501019690938501F4
:1026A000809384018091C5019091C601833091058A
:1026B00048F48091C5019091C60101969093C6019E
:1026C0008093C5018091E501873328F48091E5016D
:1026D0008F5F8093E5018091F001843328F480912D
:1026E000F0018F5F8093F0018091EB018C831B825E
:1026F0009C81933010F021E02B838C818F5F80933D
:10270000EB018B81882309F45EC08091E601282FBC
:1027100030E08091C9019091CA0128173907D9F09A
:102720008091E601282F30E08091C9019091CA0183
:102730002817390734F48091E6018F5F8093E60112
:1027400005C08091E60181508093E601EAE4F0E063
:102750008091E601808380910802282F30E08091EB
:10276000B9019091BA0128173907D9F08091080270
:10277000282F30E08091B9019091BA0128173907CC
:1027800034F4809108028F5F8093080205C0809125
:102790000802815080930802E8E4F0E0809108028A
:1027A000808380910802882321F48091E6018823A8
:1027B00029F0EFE4F0E082EA808303C0EFE4F0E088
:1027C00010821092EB011092FC018091AD01887093
:1027D000882309F077C080918001909181019A83CC
:1027E0008983809182018F5F809382018091820131
:1027F0008631F0F089819A8180709074009789F415
:1028000089819A8180709072009759F089819A81AC
:1028100090930702809306028091AD0188608093B7
:10282000AD018091AD018F7E8093AD011A82198236
:10283000E6E3F0E09081809183018927882F90E082
:10284000847090700097C1F180918301809580938E
:10285000830180918201873038F48091AD018F7EB1
:102860008093AD011A82198289819A81009721F0A3
:10287000809182018F3000F18091AD018061809361
:10288000AD0189819A8180709074009731F48981BB
:102890009A81880F991F9A83898380918301882F59
:1028A00090E084709070009729F489819A8181600A
:1028B0009A8389831092820189819A819093810100
:1028C000809380012B96DEBFCDBFCF91DF91FF912A
:1028D000EF91BF91AF919F918F917F916F915F9198
:1028E0003F912F910F900FBE0F901F901895DF937F
:1028F000CF930F92CDB7DEB789831092F9019091F3
:10290000F90189819817D8F30F90CF91DF9108953D
:10291000DF93CF9300D00F92CDB7DEB79A83898330
:1029200003C08AE00E9477141B8289819A810097F4
:1029300011F081E08B8389819A8101979A83898341
:102940008B81882371F70F900F900F90CF91DF91BB
:102950000895DF93CF9300D00F92CDB7DEB79A835F
:10296000898301C000001B8289819A81009711F040
:1029700081E08B8389819A8101979A8389838B81F6
:10298000882381F70F900F900F90CF91DF910895DA
:10299000DF93CF93CDB7DEB7AAE3B0E0EAE3F0E090
:1029A000808180618C93ABE3B0E0EBE3F0E0808169
:1029B00080618C93CF91DF910895DF93CF93CDB752
:1029C000DEB7ABE3B0E0EBE3F0E080818F7E8C9389
:1029D000AAE3B0E0EAE3F0E080818F7E8C93CF91B0
:1029E000DF910895DF93CF93CDB7DEB70E94D60570
:1029F0000E94320E0E945E050E946E07CF91DF9109
:102A00000895DF93CF930F92CDB7DEB7EBE3F0E0FD
:102A10001082E8E3F0E01082E5E3F0E01082E2E308
:102A2000F0E081E08083EAE3F0E01082E7E3F0E0A9
:102A300088E58083E4E3F0E08CE88083E1E3F0E084
:102A400082EF8083F894A8E3B0E0E8E3F0E08081CF
:102A50008F7D8C93A7E3B0E0E7E3F0E080818062B4
:102A60008C938C91A2E3B0E0E2E3F0E080818F7779
:102A70008C930E94ED10E0E4F0E01082E9E2F0E0D7
:102A80008CE08083EBE2F0E01082E0E4F0E086E8A6
:102A90008083EAE2F0E088E98083E7E2F0E01082F8
:102AA000E6E2F0E086E18083E0E5F0E01082E5E533
:102AB000F0E085E08083EBE5F0E080EE8083E4E504
:102AC000F0E01082E3E5F0E08AE08083ECE5F0E0FE
:102AD00083E68083EFE4F0E082EA8083EEE4F0E0D6
:102AE00081E18083E6E4F0E082ED90E091838083F1
:102AF000EAE4F0E01082E8E4F0E0108280E060E0D8
:102B00000E94910CE5E4F0E089E08083E3E4F0E0EA
:102B10008EE68083E9E5F0E082E080838091AD017C
:102B200081608093AD0181E08093660078940F907E
:102B3000CF91DF910895DF93CF930F92CDB7DEB79A
:102B40008983F894E2E2F0E089818083E3E2F0E0B7
:102B50008FEF8083E6E5F0E084E080837894E6E51B
:102B6000F0E085EC80830F90CF91DF9108951F9264
:102B70000F920FB60F9211242F933F938F939F9331
:102B8000AF93BF93EF93FF93DF93CF9300D0CDB775
:102B9000DEB7E1E2F0E08081282F30E03A8329833C
:102BA00089819A818039910509F49CC029813A81F3
:102BB000213931059CF489819A818037910509F486
:102BC00089C029813A812038310509F45AC08981A8
:102BD0009A818036910509F449C098C029813A81CB
:102BE000283A3105B9F089819A81893A91053CF4F6
:102BF00029813A81203A310509F47EC087C0898154
:102C00009A81883B910561F029813A81203C310508
:102C1000F9F07CC084E080938A0181E08093880190
:102C200080918A01843079F4A3E2B0E020918B0195
:102C3000822F90E0FC01E45EFD4F80818C93822F17
:102C40008F5F80938B01E6E5F0E085EC808362C0C6
:102C500010928A0110928B011092880181E080937A
:102C60008601E6E5F0E085EC808354C081E0809346
:102C7000890182E080938A01E6E5F0E085EC8083BB
:102C800049C080918A01823069F4E3E2F0E08081FA
:102C900080938B0180918B018093870183E08093E7
:102CA0008A0113C080918A01833079F430918B01BD
:102CB000832F90E0E3E2F0E02081FC01E45FFD4F30
:102CC0002083832F8F5F80938B01E6E5F0E085EC16
:102CD000808320C081E080938A01E6E5F0E085EC06
:102CE000808318C0E3E2F0E0808180930B02E6E588
:102CF000F0E085EC80830EC085E080938A01E6E5F4
:102D0000F0E085EC80831092890104C0E6E5F0E0F4
:102D100084E880830F900F90CF91DF91FF91EF9126
:102D2000BF91AF919F918F913F912F910F900FBEC7
:102D30000F901F901895DF93CF930F92CDB7DEB70A
:102D40008983EBE2F0E08081882F90E080729070C0
:102D50000097B9F3ECE2F0E0898180830F90CF9186
:102D6000DF910895DF93CF9300D0CDB7DEB79A837C
:102D700089830BC0E981FA81208189819A8101963A
:102D80009A838983822F0E949B16E981FA81808130
:102D9000882381F70F900F90CF91DF910895DF93F3
:102DA000CF9300D000D000D0CDB7DEB79E838D8307
:102DB00003C08C810E949B168D819E819B838A8398
:102DC0008D819E8101969E838D83EA81FB81849112
:102DD000898389818C838C81882359F726960FB645
:102DE000F894DEBF0FBECDBFCF91DF910895DF9382
:102DF000CF9300D000D0CDB7DEB79A8389836B83A1
:102E00004C838C81282F30E089819A81820F931F17
:102E10009A8389830EC0E981FA81208189819A8110
:102E200001969A838983822F0E949B168B81815001
:102E30008B83E981FA818081882319F08B81882333
:102E400051F70F900F900F900F90CF91DF91089551
:102E5000DF93CF93CDB7DEB764970FB6F894DEBF9C
:102E60000FBECDBF9B8B8A8B6C8B8C89482F50E01B
:102E70008A899B899E012F5F3F4FB9010E94DC1F09
:102E8000CE0101960E94B21664960FB6F894DEBF8A
:102E90000FBECDBFCF91DF910895DF93CF93CDB714
:102EA000DEB766970FB6F894DEBF0FBECDBF9C8B22
:102EB0008B8B6D8B4E8B8D89482F50E08B899C8935
:102EC0009E012E5F3F4FB9010E94DC1FCE0102968A
:102ED0000E94D21F982F8E89891B89838981181699
:102EE0007CF406C089818150898380E30E949B160F
:102EF00089811816BCF3CE0102960E94B21609C051
:102F000089818195282FCE0102966E89422F0E94D9
:102F1000F71666960FB6F894DEBF0FBECDBFCF9101
:102F2000DF9108951F920F920FB60F9211242F93E5
:102F30003F938F939F93EF93FF93DF93CF93CDB7FF
:102F4000DEB780918F0190918E01891B8032E8F469
:102F500090918D01292F30E0ECE2F0E08081F901C1
:102F6000E35BFD4F8083892F8F5F80938D0180917C
:102F70008F018F5F80938F0180918D01813210F0DE
:102F800010928D0110924C0208C0ECE2F0E08081BA
:102F90008093900181E080934C02CF91DF91FF916B
:102FA000EF919F918F913F912F910F900FBE0F90B6
:102FB0001F901895DF93CF930F92CDB7DEB7109285
:102FC0004C0290918F0180918E019817C9F08091E9
:102FD0008E018F5F80938E0180918C01813210F081
:102FE00010928C0120918C01822F90E0FC01E35B18
:102FF000FD4F80818983822F8F5F80938C0101C078
:10300000198289810F90CF91DF910895DF93CF933B
:1030100000D000D0CDB7DEB79B838A836C83198242
:1030200010924C0223C080918E018F5F80938E019D
:103030008981282F30E08A819B81DC01A20FB31F98
:1030400020918C01822F90E0FC01E35BFD4F808199
:103050008C9389818F5F8983822F8F5F80938C010E
:1030600080918C01813210F010928C0190918F012F
:1030700080918E01981721F099818C81981798F290
:1030800089810F900F900F900F90CF91DF9108954D
:10309000DF93CF93CDB7DEB790918F0180918E01F2
:1030A000292F281B822FCF91DF910895DF93CF9393
:1030B000CDB7DEB7AAE2B0E0EAE2F0E080818F7738
:1030C0008C93ECE2F0E080818093910110928C016E
:1030D00010928D0110928E0110928F0110924C026D
:1030E000AAE2B0E0EAE2F0E0808180688C93CF91C0
:1030F000DF910895EF92FF920F931F937B018C0154
:1031000020E030E040E05FE40E94F61B88238CF072
:10311000C801B70120E030E040E05FE40E94F2190E
:103120000E94841C9B01AC0120503040404050481C
:1031300006C0C801B7010E94841C9B01AC01B90103
:10314000CA011F910F91FF90EF900895A0E0B0E0A9
:10315000ECEAF8E10C949B1FDC012B01FA019C9135
:10316000923008F439C1EB018881823008F433C110
:10317000943069F4843009F02FC111969C91119715
:103180008981981709F428C1ABE6B0E025C18430E5
:1031900009F421C18230A9F4923009F01DC19A01CD
:1031A000AD0188E0EA010990AE01E90109929E01B2
:1031B0008150C1F7E201898111969C918923818315
:1031C00008C1923009F407C112962D903C901397D4
:1031D000EB018A819B811496AD90BD90CD90DC90DF
:1031E0001797EC80FD800E811F819101281B390B00
:1031F000B90137FF04C066277727621B730B603263
:1032000071050CF061C0121613066CF53701480108
:10321000062E04C096948794779467940A94D2F704
:1032200021E030E040E050E004C0220F331F441F93
:10323000551F6A95D2F721503040404050402E2112
:103240003F2140235123211531054105510521F02E
:1032500021E030E040E050E079018A01E628F728DB
:10326000082919293CC0232BD1F1260E371E350120
:103270004601062E04C096948794779467940A9426
:10328000D2F721E030E040E050E004C0220F331FCD
:10329000441F551F6A95D2F721503040404050409E
:1032A0002A213B214C215D21211531054105510584
:1032B00021F021E030E040E050E059016A01A62809
:1032C000B728C828D9280BC0821593052CF01C01FB
:1032D000AA24BB24650103C0EE24FF2487011196B4
:1032E0009C91D20111968C91981709F445C09923AD
:1032F00039F0A80197012A193B094C095D0906C05C
:10330000A60195012E193F09400B510B57FD08C02E
:1033100011823382228224833583468357831DC0E2
:1033200081E081833382228288279927DC01821BF6
:10333000930BA40BB50B84839583A683B7830DC031
:10334000220F331F441F551F248335834683578321
:103350008281938101979383828324813581468181
:103360005781DA01C9010197A109B1098F5F9F4F08
:10337000AF4FBF4328F30BC0918333822282EA0C04
:10338000FB1C0C1D1D1DE482F5820683178383E060
:103390008083248135814681578157FF1AC0C90136
:1033A000AA2797FDA095BA2F81709070A070B07079
:1033B0005695479537952795822B932BA42BB52BA4
:1033C00084839583A683B7838281938101969383B7
:1033D0008283DF0101C0D201CD01CDB7DEB7E2E1CA
:1033E0000C94B71FA0E2B0E0E8EFF9E10C94A71F3E
:1033F00069837A838B839C832D833E834F83588795
:10340000E9E0EE2EF12CEC0EFD1ECE010196B70187
:103410000E94751E8E010F5E1F4FCE010596B801EA
:103420000E94751E8A8991E089278A8BC701B8019D
:10343000AE01475E5F4F0E94A6180E94A01DA09695
:10344000E6E00C94C31FA0E2B0E0E9E2FAE10C94DC
:10345000A71F69837A838B839C832D833E834F834D
:103460005887F9E0EF2EF12CEC0EFD1ECE010196EF
:10347000B7010E94751E8E010F5E1F4FCE0105968B
:10348000B8010E94751EC701B801AE01475E5F4FCB
:103490000E94A6180E94A01DA096E6E00C94C31FEF
:1034A000A0E2B0E0E6E5FAE10C949B1F69837A8321
:1034B0008B839C832D833E834F835887CE01019657
:1034C000BE01675F7F4F0E94751ECE010596BE014B
:1034D0006F5E7F4F0E94751E9985923088F08989B2
:1034E0008230C8F0943019F4823051F404C0843032
:1034F00029F4923081F48BE690E0C6C0923049F412
:1035000020E09A858A89981321E02A87CE010996BE
:10351000BBC0823049F420E09A858A89981321E063
:103520002A8BCE014196B0C02D843E844F845888AA
:103530006D887E888F88988CEE24FF248701AA24CA
:10354000BB24650140E050E060E070E0E0E0F0E0C6
:10355000C10181709070892BE9F0E60CF71C081D01
:10356000191D9A01AB012A0D3B1D4C1D5D1D80E00C
:1035700090E0A0E0B0E0E614F7040805190520F497
:1035800081E090E0A0E0B0E0BA01A901480F591F26
:103590006A1F7B1FAA0CBB1CCC1CDD1C97FE08C03D
:1035A00081E090E0A0E0B0E0A82AB92ACA2ADB2A8C
:1035B0003196E032F10549F0660C771C881C991CA5
:1035C0005694479437942794C3CFFA85EA892B8978
:1035D0003C898B859C85280F391F2E5F3F4F17C074
:1035E000CA0181709070892B61F016950795F79448
:1035F000E79480E090E0A0E0B0E8E82AF92A0A2BFE
:103600001B2B76956795579547952F5F3F4F77FD15
:10361000E7CF0CC0440F551F661F771F17FD416091
:10362000EE0CFF1C001F111F21503040403090E075
:10363000590790E0690790E4790760F32B8F3C8F7E
:10364000DB01CA018F779070A070B0708034910553
:10365000A105B10561F447FD0AC0E114F1040105BB
:10366000110529F0405C5F4F6F4F7F4F40781A8EF5
:10367000FE1711F081E08A8F4D8F5E8F6F8F78A3D8
:1036800083E0898FCE0149960E94A01DA096E2E1B9
:103690000C94B71FA8E1B0E0E0E5FBE10C94A31F98
:1036A00069837A838B839C832D833E834F835887E2
:1036B000B9E0EB2EF12CEC0EFD1ECE010196B70108
:1036C0000E94751E8E010F5E1F4FCE010596B80138
:1036D0000E94751E2985223008F47EC03989323057
:1036E00010F4B8017CC08A859A8989278A8724309A
:1036F00011F0223031F4231709F06EC06BE670E050
:103700006EC0343039F41D861E861F86188A1C86CA
:103710001B8604C0323021F484E08987B7015FC082
:103720002B853C858B899C89281B390B3C872B87F3
:10373000ED84FE840F851889AD88BE88CF88D88C2B
:10374000EA14FB040C051D0540F4EE0CFF1C001FE1
:10375000111F215030403C872B8720E030E040E0B3
:1037600050E080E090E0A0E0B0E460E070E0EA14B7
:10377000FB040C051D0540F0282B392B4A2B5B2B35
:10378000EA18FB080C091D09B695A795979587952A
:10379000EE0CFF1C001F111F6F5F7F4F6F31710513
:1037A00031F7DA01C9018F779070A070B070803462
:1037B0009105A105B10561F427FD0AC0E114F104EA
:1037C0000105110529F0205C3F4F4F4F5F4F2078D6
:1037D0002D873E874F87588BBE01675F7F4FCB0198
:1037E0000E94A01D6896EAE00C94BF1FA8E1B0E01B
:1037F000ECEFFBE10C94A71F69837A838B839C8396
:103800002D833E834F83588789E0E82EF12CEC0E00
:10381000FD1ECE010196B7010E94751E8E010F5E3E
:103820001F4FCE010596B8010E94751E8985823012
:1038300040F08989823028F0C701B8010E94ED1E4E
:1038400001C08FEF6896E6E00C94C31FA8E0B0E0DB
:10385000ECE2FCE10C94A41F9B01AC0183E08983A2
:10386000DA01C9018827B7FD83959927AA27BB27C5
:10387000B82E211531054105510519F482E08983DF
:103880003AC08823A9F0203080E0380780E048075C
:1038900080E8580729F460E070E080E09FEC30C0D9
:1038A000EE24FF248701E21AF30A040B150B02C071
:1038B00079018A018EE1C82ED12CDC82CB82ED8287
:1038C000FE820F831887C801B7010E94511D01971E
:1038D0001816190684F4082E04C0EE0CFF1C001FF5
:1038E000111F0A94D2F7ED82FE820F831887C81A3F
:1038F000D90ADC82CB82BA82CE0101960E94A01D39
:103900002896E9E00C94C01FACE0B0E0EAE8FCE1E6
:103910000C94AB1F69837A838B839C83CE010196C1
:10392000BE016B5F7F4F0E94751E8D81823061F1F9
:10393000823050F1843021F48E81882351F12EC0E1
:103940002F81388537FD20C06E812F3131051CF065
:103950006623F9F023C08EE190E0821B930B29854A
:103960003A854B855C8504C05695479537952795D4
:103970008A95D2F76623B1F0509540953095219500
:103980003F4F4F4F5F4F0EC020E030E040E050E02F
:1039900009C02FEF3FEF4FEF5FE704C020E030E0BA
:1039A00040E050E8B901CA012C96E2E00C94C71F30
:1039B000A8E0B0E0EEEDFCE10C94A31F7B018C01CC
:1039C000611571058105910519F482E0898360C054
:1039D00083E089838EE1C82ED12CDC82CB82ED82FC
:1039E000FE820F831887C801B7010E94511DFC0198
:1039F0003197F7FF3BC0222733272E1B3F0B570180
:103A00006801022E04C0D694C794B794A7940A9470
:103A1000D2F740E050E060E070E081E090E0A0E0AC
:103A2000B0E004C0880F991FAA1FBB1F2A95D2F7C8
:103A30000197A109B1098E219F21A023B1230097ED
:103A4000A105B10521F041E050E060E070E04A29B5
:103A50005B296C297D294D835E836F8378878EE196
:103A600090E08E1B9F0B9C838B8312C0309781F05C
:103A70000E2E04C0EE0CFF1C001F111F0A94D2F77B
:103A8000ED82FE820F831887CE1ADF0ADC82CB829A
:103A90001A82CE0101960E94A01D2896EAE00C949D
:103AA000BF1FEF92FF920F931F937B018C0180E069
:103AB000E81680E0F80681E0080780E0180788F43F
:103AC0008FEFE816F1040105110531F028F088E0C8
:103AD00090E0A0E0B0E017C080E090E0A0E0B0E0AF
:103AE00012C080E0E81680E0F80680E0080781E078
:103AF000180728F088E190E0A0E0B0E004C080E181
:103B000090E0A0E0B0E020E230E040E050E0281B90
:103B1000390B4A0B5B0B04C016950795F794E79495
:103B20008A95D2F7F701ED58FF4F8081281B3109A4
:103B300041095109C9011F910F91FF90EF9008951C
:103B4000DF92EF92FF920F931F93FC01E480F580C8
:103B500006811781D1808081823048F480E090E036
:103B6000A0E1B0E0E82AF92A0A2B1B2BA5C084307B
:103B700009F49FC0823021F4EE24FF24870105C0A0
:103B8000E114F1040105110519F4E0E0F0E096C03C
:103B9000628173819FEF623879070CF05BC022E885
:103BA0003FEF261B370B2A3131052CF020E030E0A7
:103BB00040E050E02AC0B801A701022E04C076956B
:103BC0006795579547950A94D2F781E090E0A0E079
:103BD000B0E004C0880F991FAA1FBB1F2A95D2F717
:103BE0000197A109B1098E219F21A023B12300973C
:103BF000A105B10521F081E090E0A0E0B0E09A01DC
:103C0000AB01282B392B4A2B5B2BDA01C9018F77AB
:103C10009070A070B07080349105A105B10539F4A1
:103C200027FF09C0205C3F4F4F4F5F4F04C0215C0E
:103C30003F4F4F4F5F4FE0E0F0E02030A0E03A0709
:103C4000A0E04A07A0E45A0710F0E1E0F0E07901B3
:103C50008A0127C06038710564F5FB01E158FF4F08
:103C6000D801C7018F779070A070B0708034910533
:103C7000A105B10539F4E7FE0DC080E490E0A0E0B5
:103C8000B0E004C08FE390E0A0E0B0E0E80EF91EE1
:103C90000A1F1B1F17FF05C016950795F794E79499
:103CA000319687E016950795F794E7948A95D1F7B2
:103CB00005C0EE24FF248701EFEFF0E06E2F67953B
:103CC00066276795902F9F77D794DD24D7948E2F02
:103CD0008695492F462B582F5D29B701CA011F91A0
:103CE0000F91FF90EF90DF900895FC01DB01408180
:103CF00051812281622F6F7770E0221F2227221FBD
:103D00009381892F880F822B282F30E0991F9927C4
:103D1000991F11969C93119721153105A9F541150D
:103D200051056105710511F482E037C082E89FEF0B
:103D300013969C938E9312979A01AB0167E0220F22
:103D4000331F441F551F6A95D1F783E08C930DC034
:103D5000220F331F441F551F12968D919C9113976C
:103D6000019713969C938E931297203080E038072A
:103D700080E0480780E4580758F314962D933D934C
:103D80004D935C93179708952F3F310579F44115B2
:103D900051056105710519F484E08C93089564FF61
:103DA00003C081E08C9312C01C9210C02F5730408A
:103DB00013963C932E93129783E08C9387E0440FE5
:103DC000551F661F771F8A95D1F7706414964D931F
:103DD0005D936D937C93179708951F93DC01FB010E
:103DE0009C91923008F447C08081823008F443C02F
:103DF000943051F411961C91843099F58181682F8B
:103E000070E0611B71093FC0843021F0923031F4C1
:103E10008230B9F18181882389F12DC011961C91DE
:103E200011978230F1F081811817D9F412962D91F3
:103E30003C911397828193818217930794F02817FE
:103E40003907BCF014968D919D910D90BC91A02DD9
:103E50002481358146815781281739074A075B0736
:103E600018F4112341F00AC082179307A407B5077D
:103E700040F4112319F061E070E005C06FEF7FEFAF
:103E800002C060E070E0CB011F910895629FD001F5
:103E9000739FF001829FE00DF11D649FE00DF11D05
:103EA000929FF00D839FF00D749FF00D659FF00DB4
:103EB0009927729FB00DE11DF91F639FB00DE11DA1
:103EC000F91FBD01CF0111240895AA1BBB1B51E1AD
:103ED00007C0AA1FBB1FA617B70710F0A61BB70B7A
:103EE000881F991F5A95A9F780959095BC01CD011F
:103EF0000895A1E21A2EAA1BBB1BFD010DC0AA1F2B
:103F0000BB1FEE1FFF1FA217B307E407F50720F042
:103F1000A21BB30BE40BF50B661F771F881F991FBD
:103F20001A9469F760957095809590959B01AC0106
:103F3000BD01CF0108952F923F924F925F926F92F1
:103F40007F928F929F92AF92BF92CF92DF92EF9229
:103F5000FF920F931F93CF93DF93CDB7DEB7CA1BAA
:103F6000DB0B0FB6F894DEBF0FBECDBF09942A88D5
:103F7000398848885F846E847D848C849B84AA847D
:103F8000B984C884DF80EE80FD800C811B81AA810A
:103F9000B981CE0FD11D0FB6F894DEBF0FBECDBFD5
:103FA000ED010895E82FF92F01900020E9F78095A1
:103FB00090958E0F9F1F0895E62FF72F2E2F3F2FDE
:103FC000E8944230C4F04532B4F44A3029F497FB07
:103FD0001EF4909581959F4F642F772776DF805D43
:103FE0008A330CF0895D8193862F972F0097A1F774
:103FF00016F45DE251931082822F932F00C0A82FF8
:10400000B92FE82FF92F672F71917723E1F73297B6
:1040100004C07C916D9370836291AE17BF07C8F3A3
:064020000895F894FFCFA3
:104026003C004505C70601FB0D190E000000000007
:104036000000000001020203030303040404040455
:10404600040404050505050505050505050505051D
:1040560005050506060606060606060606060606FD
:1040660006060606060606060606060606060606EA
:1040760006060607070707070707070707070707CD
:1040860007070707070707070707070707070707BA
:1040960007070707070707070707070707070707AA
:1040A600070707070707070707070707070707079A
:1040B600070707080808080808080808080808087D
:1040C600080808080808080808080808080808086A
:1040D600080808080808080808080808080808085A
:1040E600080808080808080808080808080808084A
:1040F600080808080808080808080808080808083A
:104106000808080808080808080808080808080829
:104116000808080808080808080808080808080819
:104126000808080808080808080808080808080809
:04413600080808006D
:00000001FF
